:020000040800F2
:1000000000500020392E00089504000897040008CD
:10001000990400089B0400089D04000800000000EB
:10002000000000000000000000000000912800080F
:100030009F0400080000000031290008752900080D
:10004000812E0008812E0008812E0008812E0008D4
:10005000812E0008812E0008812E0008812E0008C4
:10006000812E0008812E0008812E0008A1040008BE
:10007000812E0008812E0008812E0008812E0008A4
:10008000812E0008812E0008B1040008812E00088E
:10009000812E0008812E0008812E0008812E000884
:1000A000812E0008C9040008812E0008812E000856
:1000B000812E0008812E0008812E0008812E000864
:1000C000812E0008812E0008812E0008812E000854
:1000D000812E0008812E0008812E0008812E000844
:1000E000812E0008812E0008812E000800000000EB
:1000F0000000000000000000000000000000000000
:0C01000000000000000000005FF808F1A3
:100110000348044B834202D0034B03B11847704796
:100120001000002010000020000000000548064BD1
:100130001B1AD90F01EBA301491002D0034B03B1E5
:100140001847704710000020100000200000000039
:1001500010B5064C237843B9FFF7DAFF044B13B10F
:100160000448AFF300800123237010BD100000206D
:1001700000000000842E000808B5044B1BB10449A0
:100180000448AFF30080BDE80840CFE7000000005E
:1001900014000020842E000870B50F4B0F4DAB42A9
:1001A000A3EB050607D00024B61055F8043B013434
:1001B0009847A642F9D802F065FE094D094B5E1B2F
:1001C000AB424FEAA60606D0002455F8043B0134A2
:1001D0009847A642F9D870BD042F0008042F0008E4
:1001E000042F0008082F000870B5860747D0541E5A
:1001F000002A3ED00346CAB201E0013C39D303F8DD
:10020000012B9D07F9D1032C2CD9CDB205EB052587
:100210000F2C1A4605EB054534D9A4F1100C2CF02F
:100220000F0603F1100EB6444FEA1C1CC2E900553C
:10023000C2E9025510327245F8D10CF1010214F0F6
:100240000C0F03EB021204F00F0C13D0ACF10403FB
:1002500023F003030433134442F8045B9342FBD1BD
:100260000CF003042CB1C9B21C4403F8011BA342D7
:10027000FBD170BD64461346002CF4D1F9E7034668
:100280001446C0E7A446E1E782B00A4B9A6942F0FF
:1002900020029A619A6902F020020092009A9A69FB
:1002A00042F004029A619B6903F004030193019BED
:1002B00002B070470010024000B583B00A4B5A6983
:1002C00042F001025A615B6903F001030193019B53
:1002D000002205210B2001F0F9FA0B2001F006FBAA
:1002E00003B05DF804FB00BF0010024008B5012018
:1002F00002F080FAFBE7000008B50268034B9A425F
:1003000000D008BD00F094FCFBE700BF002C0140CA
:1003100072B6FEE700B585B0002301930293039304
:100320000F48104A026083600122027303754FF484
:100330006021C1614360026100F0E2FB60B901230A
:10034000019302930023039301A9054800F030FABA
:1003500020B905B05DF804FBFFF7DAFFFFF7D8FF1F
:10036000A40000200024014000B585B000230193C3
:10037000029303931048114A02608360037303756C
:100380004FF46022C26143600123036100F0B8FBB7
:1003900068B902230193012302930023039301A967
:1003A000054800F005FA20B905B05DF804FBFFF739
:1003B000AFFFFFF7ADFF00BF740000200028014031
:1003C00000B595B0282200210DEB0200FFF70CFFCD
:1003D00000230593069307930893099301930293CF
:1003E0000393049301220A924FF480330B930E92ED
:1003F0000222119212934FF4E01313930AA800F013
:100400003FFCC8B90F2305930221069100230793EF
:100410004FF480620892099305A800F063FE68B962
:10042000022301934FF40043039301A800F044FF1B
:1004300030B915B05DF804FBFFF76AFFFFF768FFFE
:10044000FFF766FF00B589B000F0E0FBFFF7B8FFEB
:10045000FFF71AFFFFF730FFFFF75CFFFFF784FF9E
:1004600002F062FC0DF1040C084C0FCCACE80F005C
:1004700094E807008CE80700002101A802F087F942
:10048000034B186002F07EF9FEE700BF9C2E0008C7
:100490002C000020FEE7FEE7FEE7FEE7FEE77047E0
:1004A00008B5024801F028F908BD00BF300000205F
:1004B00008B5034800F0ECF8024800F0E9F808BD80
:1004C000A40000207400002008B5024801F0AEFA34
:1004D00008BD00BF2C03002000B583B0114B9A6902
:1004E00042F001029A619A6902F001020092009AB8
:1004F000DA6942F08052DA61DB6903F080530193DC
:10050000019B00220F216FF0010001F0DFF9064A84
:10051000536823F0E06343F00073536003B05DF869
:1005200004FB00BF001002400000014010B588B07D
:10053000002304930593069307930368364A934276
:1005400004D0364A934242D008B010BD0446344B22
:100550009A6942F400729A619A6902F400720092F8
:10056000009A9A6942F004029A619B6903F00403BD
:100570000193019B022304930323059304A92948B3
:1005800000F026FF2848294B036000234360836066
:100590008023C3604FF4007303614FF40063436131
:1005A000202383614FF40053C36101F035F858B93B
:1005B0001D4B23625C6200220521122001F086F9A6
:1005C000122001F093F9BFE7FFF7A2FEF0E7144B0A
:1005D0009A6942F480629A619A6902F48062029296
:1005E000029A9A6942F004029A619B6903F004033B
:1005F0000393039B042304930323059304A909484D
:1006000000F0E6FE00220521122001F05FF9122021
:1006100001F06CF998E700BF002401400028014078
:100620000010024000080140300000200800024095
:1006300008B5436A9A6A12F0500F1ED19A6A42F4C2
:1006400000729A621A68926802F46022B2F5602F12
:1006500003D0184602F0D6FB08BD1A7B002AF8D159
:100660009A6A22F480729A629A6A12F4805FF0D1D8
:100670009A6A42F001029A62EBE71B6A1B6B984789
:10068000EAE7704708B5406AFFF7FBFF08BD70470F
:1006900070B5044603681E685D6815F0200F17D01A
:1006A00016F0020F14D0826A12F0100F03D1826A82
:1006B00042F4007282629A6802F46022B2F5602FFE
:1006C00033D0204602F09EFB23686FF012021A60BE
:1006D00015F0800F22D016F0040F1FD0A36A13F07C
:1006E000100F03D1A36A43F40053A36222689368F6
:1006F00003F4E043B3F5E04F2ED0536813F4806F5A
:1007000005D1936803F46023B3F5602F21D0204610
:1007100000F07AFA23686FF00C021A6015F0400FAF
:1007200002D016F0010F28D170BD227B002AC8D15B
:100730005A6822F020025A60A36A23F48073A362ED
:10074000A36A13F4805FBCD1A36A43F00103A362E0
:10075000B7E7237B002BDAD1536823F08003536083
:10076000A36A23F48053A362A36A13F4807FCED1DB
:10077000A36A43F00103A362C9E7A36A43F4803389
:10078000A3622046FFF783FF23686FF001021A601F
:10079000CAE7704708B5406A836A43F04003836242
:1007A000C36A43F00403C362FFF7F3FF08BD000010
:1007B00030B482B00022019290F82420012A00F087
:1007C0008F800346012280F824204A68062A2DD80B
:1007D0000468606B02EB8202053A4FF01F0C0CFAC2
:1007E00002FC20EA0C000D6805FA02F20243626383
:1007F0000A68092A38D91C68E06802EB42021E3AEE
:100800004FF0070C0CFA02FC20EA0C008D6805FA88
:1008100002F20243E2600A68103A012A34D9002049
:10082000002283F8242002B030BC70470C2A0DD877
:100830000568286B02EB8202233A1F24944020EAC9
:1008400004000C68944020432863D1E70568E86AF7
:1008500002EB8202413A1F24944020EA04000C6813
:1008600094402043E862C3E71C68206902EB42021F
:100870004FF0070C0CFA02FC20EA0C008D6805FA18
:1008800002F202432261C6E71A681648824205D086
:100890009A6A42F020029A620120C1E7906810F43F
:1008A000000F1BD1906840F4000090600A68102A85
:1008B00001D00020B4E70C4A12680C49A1FB0212D7
:1008C000920C02EB82025200019202E0019A013A7C
:1008D0000192019A002AF9D10020A1E700209FE7A8
:1008E0000220A0E7002401400800002083DE1B4313
:1008F00030B583B00023019303689A6812F0010FAA
:1009000033D104469A6842F001029A60184B1B6882
:10091000184AA2FB03239B0C019302E0019B013BBD
:100920000193019B002BF9D100F08EF90546236855
:100930009B6813F0010F16D100F086F9431B022BC0
:10094000F5D923689B6813F0010FF0D1A36A43F037
:100950001003A362E36A43F00103E362002384F817
:100960002430012002E0002000E0002003B030BD70
:100970000800002083DE1B43F8B504460D461646EA
:1009800001684448814259D0434B994256D094F86B
:100990002430012B7CD0012384F824302046FFF73B
:1009A000A7FF074600286ED1A16A21F4706121F0EB
:1009B000010141F48071A1622268374B9A4244D010
:1009C000A36A23F48013A362536813F4806F05D0E5
:1009D000A36A23F4405343F48053A362A36A13F43D
:1009E000805F48D0E36A23F00603E362002384F8C3
:1009F0002430236A294A9A62236A294ADA62236ADE
:100A0000284A1A6323686FF002021A60226893680A
:100A100043F480739360216833462A464C31206A40
:100A200000F02EFE23689A6802F46022B2F5602F6F
:100A300024D09A6842F480129A6027E0154B5B68D4
:100A400013F4702FA3D0012720E0A3F580635B6827
:100A500013F4702FB4D0A36A43F48013A3620D4B38
:100A60005B6813F4806FB9D0A36A23F4405343F456
:100A70008053A362B2E70023E362B7E79A6842F4C7
:100A8000A0029A6002E0002384F824303846F8BDC2
:100A90000227FBE70024014000280140310600083E
:100AA000850600089507000838B503689A6812F0B3
:100AB000010F01D1002038BD04469A6822F00102DE
:100AC0009A6000F0C1F8054623689B6813F0010F97
:100AD00013D000F0B9F8431B022BF5D923689B68AB
:100AE00013F0010FF0D0A36A43F01003A362E36A8E
:100AF00043F00103E3620120DDE70020DBE70000B3
:100B000000287BD070B50446836A002B4DD0204668
:100B1000FFF7CAFFA36A13F0100369D1002867D159
:100B2000A26A22F4885222F0020242F00202A26279
:100B30006268E1690A43217B42EA4102A568B5F592
:100B4000807F02D0012D36D01D46267D012E35D066
:100B50002668716821F46941294371602568AE688F
:100B6000274931401143A960A168B1F5807F01D0C8
:100B7000012902D12369013B1B052568E96A21F49B
:100B800070010B43EB62236899681E4B0B409A423D
:100B900025D0A36A23F0120343F01003A362E36A93
:100BA00043F00103E362012027E0C36280F82430B0
:100BB000FFF7BCFCABE74FF48075C6E731B9A1691C
:100BC000013945EA413141F40065C1E7A16A41F0CC
:100BD0002001A162E16A41F00101E162B8E700236E
:100BE000E362A36A23F0030343F00103A36204E07A
:100BF000A36A43F01003A362012070BD0120704777
:100C0000FDF7E1FFFE0E1FFF7047000008B5074A21
:100C1000136843F010031360032000F045FE0F201B
:100C200000F080FEFFF758FC002008BD00200240C5
:100C3000034A1168034B1B780B441360704700BFD5
:100C4000D400002000000020014B1868704700BF4E
:100C5000D400002082B0084B1B68084AA2FB032383
:100C60005B0A00FB03F3019300BF019B5A1E019234
:100C7000002BF9D102B0704708000020D34D62105C
:100C8000002800F0F18170B582B00446036813F0CB
:100C9000010F2CD0994B5B6803F00C03042B1DD083
:100CA000964B5B6803F00C03082B12D06368B3F516
:100CB000803F41D0002B55D103F1804303F504332D
:100CC0001A6822F480321A601A6822F480221A60AC
:100CD00037E08A4B5B6813F4803FE7D0874B1B6893
:100CE00013F4003F03D06368002B00F0BF8123683A
:100CF00013F0020F75D0814B5B6813F00C0F5FD0BF
:100D00007E4B5B6803F00C03082B54D02369002B47
:100D100000F08A807A4B01221A60FFF795FF0546A2
:100D2000764B1B6813F0020F75D1FFF78DFF401B48
:100D30000228F5D903209EE1704A136843F48033FA
:100D40001360636843B3FFF77FFF05466B4B1B6877
:100D500013F4003FCBD1FFF777FF401B6428F5D990
:100D6000032088E1B3F5A02F09D0644B1A6822F460
:100D700080321A601A6822F480221A60E1E703F1D7
:100D80008043A3F53C331A6842F480221A601A6843
:100D900042F480321A60D4E7FFF756FF0546574BFE
:100DA0001B6813F4003FA2D0FFF74EFF401B6428DE
:100DB000F5D903205FE1514B5B6813F4803FA5D167
:100DC0004E4B1B6813F0020F03D02369012B40F038
:100DD0004F814A4A136823F0F803616943EAC1036B
:100DE0001360236813F0080F33D0A369002B5CD085
:100DF000434B0122C3F88024FFF726FF05463F4BF3
:100E00005B6A13F0020F21D1FFF71EFF401B02287F
:100E1000F5D903202FE1394A136823F0F8036169FB
:100E200043EAC1031360DCE7354B00221A60FFF789
:100E30000BFF0546314B1B6813F0020FD1D0FFF7B3
:100E400003FF401B0228F5D9032014E10120FFF71E
:100E500001FF236813F0040F00F09680274BDB6935
:100E600013F0805F34D1254BDA6942F08052DA61A9
:100E7000DB6903F080530193019B0125214B1B6823
:100E800013F4807F26D0E368012B3DD0002B53D193
:100E900003F1804303F504331A6A22F001021A6257
:100EA0001A6A22F004021A6233E0154B0022C3F8DA
:100EB0008024FFF7C9FE0546104B5B6A13F0020F52
:100EC000C7D0FFF7C1FE401B0228F5D90320D2E0AE
:100ED0000025D3E70B4A136843F480731360FFF7D0
:100EE000B3FE0646074B1B6813F4807FCBD1FFF798
:100EF000ABFE801B6428F5D90320BCE00010024043
:100F000000004242007000405F4A136A43F0010350
:100F10001362E36833B3FFF797FE06465A4B1B6A2A
:100F200013F0020F2FD1FFF78FFE801B41F28833A1
:100F30009842F3D903209EE0052B09D0524B1A6A40
:100F400022F001021A621A6A22F004021A62E0E731
:100F50004D4B1A6A42F004021A621A6A42F0010208
:100F60001A62D6E7FFF770FE0646474B1B6A13F07E
:100F7000020F08D0FFF768FE801B41F288339842C9
:100F8000F3D9032077E0E5B9E369002B72D03E4A3C
:100F9000526802F00C02082A56D0022B17D03B4BA5
:100FA00000221A66FFF750FE0446374B1B6813F009
:100FB000007F47D0FFF748FE001B0228F5D9032029
:100FC00059E0314AD36923F08053D361DCE72F4BDA
:100FD00000221A66FFF738FE05462B4B1B6813F0FC
:100FE000007F06D0FFF730FE401B0228F5D9032012
:100FF00041E0236AB3F5803F1AD023494B6823F4BC
:101000007413226A606A024313434B601F4B012230
:101010001A66FFF719FE04461B4B1B6813F0007F8E
:101020000ED1FFF711FE001B0228F5D9032022E0A4
:10103000154A536823F40033A1680B435360DCE77F
:10104000002018E0002016E0012B16D00E4B5B6844
:1010500003F48031226A914211D103F47013626A61
:1010600093420ED1002006E001207047012002E0EB
:10107000012000E0002002B070BD0120FBE701204C
:10108000F9E70120F7E700BF0010024000004242EC
:101090000F4B5B6803F00C02082A01D00D48704723
:1010A000C3F383420C49885C13F4803F0BD0084B98
:1010B0005B68C3F34043094AD35C064A02FB00F075
:1010C000B0FBF3F07047064B03FB00F0704700BF26
:1010D0000010024000127A00DC2E0008D82E000812
:1010E00000093D00002800F0A08070B50D460446C0
:1010F000524B1B6803F007038B420BD24F4A136815
:1011000023F007030B431360136803F007038B42BC
:1011100040F08D80236813F0020F17D013F0040FF6
:1011200004D0474A536843F4E0635360236813F0E4
:10113000080F04D0424A536843F460535360404A56
:10114000536823F0F003A1680B435360236813F046
:10115000010F31D06368012B20D0022B25D0384AF3
:10116000126812F0020F64D035494A6822F0030277
:1011700013434B60FFF768FD0646314B5B6803F095
:101180000C036268B3EB820F16D0FFF75DFD801B86
:1011900041F288339842F0D9032045E0284A12688A
:1011A00012F4003FE0D101203EE0254A126812F01F
:1011B000007FD9D1012037E0204B1B6803F00703E3
:1011C000AB420AD91D4A136823F007032B4313606F
:1011D000136803F00703AB422DD1236813F0040F0B
:1011E00006D0174A536823F4E063E1680B43536069
:1011F000236813F0080F07D0114A536823F4605393
:10120000216943EAC1035360FFF742FF0C4B5B685F
:10121000C3F303130B4AD35CD8400B4B18600B4B42
:10122000186800F07FFB002070BD0120704701208E
:10123000FAE70120F8E70120F6E700BF00200240AE
:1012400000100240F42E00080800002004000020D6
:10125000014B1868704700BF0800002008B5FFF771
:10126000F7FF044B5B68C3F3C223034AD35CD84047
:1012700008BD00BF00100240EC2E00080F230360E1
:101280000B4B5A6802F0030242605A6802F0F00207
:1012900082605A6802F4E062C2605B68DB0803F4B3
:1012A000E0630361034B1B6803F007030B607047A7
:1012B000001002400020024070B582B0044603686E
:1012C00013F0010F36D03F4BDB6913F0805F49D13B
:1012D0003C4BDA6942F08052DA61DB6903F08053FB
:1012E0000193019B0125384B1B6813F4807F3BD091
:1012F000344B1B6A13F4407313D0626802F44072DB
:101300009A420ED02F4A136A23F440702F490126C7
:10131000C1F840640026C1F84064106213F0010F68
:1013200036D1284A136A23F4407361680B43136271
:10133000002D3ED1236813F0020F06D0214A5368D6
:1013400023F44043A1680B435360236813F0100F4C
:1013500034D01C4A536823F48003E1680B43536084
:1013600000202CE00025BEE7174A136843F4807381
:101370001360FFF769FC0646134B1B6813F4807F6C
:10138000B6D1FFF761FC801B6428F5D9032016E075
:10139000FFF75AFC06460B4B1B6A13F0020FC0D135
:1013A000FFF752FC801B41F288339842F3D90320A7
:1013B00005E0D36923F08053D361BBE7002002B07E
:1013C00070BD00BF001002400070004000004242AB
:1013D00070B582B00024A446A1E07E4DAB4214D08B
:1013E0000CD8A5F58015AB420FD005F57025AB42A2
:1013F0000BD0A5F58015AB4210D106E0764DAB427F
:1014000003D005F58035AB4208D18B68002B50D056
:10141000012B49D04261082400E0CC68BEF1FF0FE7
:1014200049D806464FEA8C0233680F25954023EAD7
:10143000050304FA02F2134333604B6813F0805F34
:101440006BD0664B9A6942F001029A619B6903F086
:1014500001030193019B4FEA9C02951C604B53F8DA
:1014600025600CF00305AD000F23AB4026EA030610
:101470005C4B984226D003F58063984200F08C8044
:1014800003F58063984200F0898003F580639842F9
:1014900016D0042317E0CC680434BFE7CC680834C6
:1014A000BCE7CC680C34B9E702610824B6E7002435
:1014B000B4E70424B2E7061DACF108029200B3E7DA
:1014C000032300E00023AB4033430232444D45F890
:1014D00022304B6813F4801F62D0434A936843EA7A
:1014E0000E0393604B6813F4001F5FD03E4AD3682D
:1014F00043EA0E03D3604B6813F4003F5CD03A4AD2
:10150000536843EA0E0353604B6813F4803F59D08D
:10151000354A136843EA0E0313600CF1010C0B68A3
:1015200033FA0CF254D0012202FA0CF203EA020E52
:1015300032EA0303F1D14B68122B3FF64EAF122B68
:101540003FF66CAF01A555F823F000BF0B1400085F
:101550001B1400089D140008AF1400081D14000897
:101560001D1400081D1400081D1400081D14000897
:101570001D1400081D1400081D1400081D14000887
:101580001D1400081D1400081D1400081D14000877
:1015900097140008A3140008012394E7022392E79C
:1015A000114A936823EA0E0393609BE70E4AD368BF
:1015B00023EA0E03D3609EE70B4A536823EA0E0327
:1015C0005360A1E7084A136823EA0E031360A4E7F7
:1015D00002B070BD00002210000031100010024067
:1015E00000000140000801400004014030B4012423
:1015F000056CAC40C56B6C60046863604368102B7D
:1016000005D0036899600368DA6030BC70470368EE
:101610009A600368D960F8E750B310B402460168D5
:10162000144B0B441448A0FB03031B099B001364D9
:10163000124BD363022382F8213008686FF30D1038
:10164000536894682343D46823431469234354693B
:10165000234394692343D469234303430B6000204D
:101660009063012382F8213082F8200010BC70477B
:1016700001207047F8FFFDBFCDCCCCCC000002406C
:1016800038B5044690F82000012832D0012084F8B3
:10169000200094F82100C0B2012804D0002384F86F
:1016A0002030022038BD022084F821000020A063F1
:1016B0002568286820F0010028602046FFF796FF83
:1016C000E36A5BB12268136843F00E03136022687B
:1016D000136843F0010313600020E3E722681368F6
:1016E00023F0040313602268136843F00A031360B5
:1016F000EDE70220D6E7000038B5C36B1A6804682E
:101700002568016C04238B40134235D015F0040F7B
:1017100032D0236813F0200F03D1236823F0040391
:1017200023600368434A934214D01432934218D082
:101730001432934217D01432934217D0143293428A
:1017400017D01432934202D04FF0806203E04FF47E
:10175000800200E00422384B5A60C36A03B1984704
:1017600038BD4022F7E74FF48062F4E74FF480423F
:10177000F1E74FF48022EEE702238B4013423CD086
:1017800015F0020F39D0236813F0200F06D123681B
:1017900023F00A032360012380F821300368254ADF
:1017A000934214D0143293421CD0143293421BD073
:1017B000143293421BD0143293421BD01432934202
:1017C00002D04FF0007203E04FF4001200E002225A
:1017D000194B5A60002380F82030836A002BBFD059
:1017E0009847BDE72022F3E74FF40072F0E74FF48B
:1017F0000052EDE74FF40032EAE708238B40134232
:10180000AED015F0080FABD0236823F00E03236091
:10181000026CC16B012303FA02F24A60836380F811
:101820002130002380F82030036B002B98D098479C
:1018300096E700BF0800024000000240806B70473E
:10184000002808DB0901C9B200F1604000F56140E1
:1018500080F80013704700F00F000901C9B2014B76
:101860001954704714ED00E000B500F00700C0F116
:10187000070CBCF1040F28BF4FF0040C031D062B0E
:101880000FD9C31E4FF0FF3E0EFA0CF021EA000103
:1018900099400EFA03FE22EA0E0241EA02005DF8C8
:1018A00004FB0023EEE70000074AD36823F4E0635B
:1018B0001B041B0C000200F4E060034343F0BF6311
:1018C00043F40033D360704700ED00E010B50446E8
:1018D000054BD868C0F30220FFF7C6FF014620463B
:1018E000FFF7AEFF10BD00BF00ED00E0002807DBF2
:1018F00000F01F02400901239340024A42F82030C1
:10190000704700BF00E100E070477047034B036081
:10191000034B0B6080231360704700BFD802002088
:10192000D800002030B589B004461E4B9A6942F4B5
:1019300000629A619B6903F400630193019B02A911
:1019400003A8FFF79BFCFFF789FC174AA2FB0023C3
:101950009B0C013B1548164A026040F2E732C26018
:101960004360002303618360836100F051F9054601
:1019700010B1284609B030BD0C4800F01FF80546EC
:101980000028F6D11920FFF7B1FF0F2C01D901254E
:10199000EFE7002221461920FFF798FF054B1C6056
:1019A000E7E700BF0010024083DE1B432C0300204A
:1019B000002C0140040000207047000090F83D30EA
:1019C000DBB2012B27D1022380F83D300268D368B7
:1019D00043F00103D3600368114A934210D0B3F17E
:1019E000804F0DD0A2F59432934209D002F5806267
:1019F000934205D01A6842F001021A600020704735
:101A00009A6802F00702062A07D01A6842F001021B
:101A10001A6000207047012070470020704700BF07
:101A2000002C0140704770477047704770B50446FE
:101A30000368DE681D6915F0020F10D016F0020F62
:101A40000DD06FF002021A610123037703689B69CE
:101A500013F0030F5ED0FFF7E6FF0023237715F0A6
:101A6000040F12D016F0040F0FD023686FF0040299
:101A70001A610223237723689B6913F4407F4FD0B8
:101A80002046FFF7D0FF0023237715F0080F12D070
:101A900016F0080F0FD023686FF008021A610423B4
:101AA00023772368DB6913F0030F40D02046FFF74C
:101AB000BAFF0023237715F0100F12D016F0100F85
:101AC0000FD023686FF010021A6108232377236870
:101AD000DB6913F4407F31D02046FFF7A4FF0023D9
:101AE000237715F0010F02D016F0010F2DD115F05C
:101AF000800F02D016F0800F2FD115F0400F02D0CA
:101B000016F0400F31D115F0200F02D016F0200F43
:101B100033D170BDFFF786FF2046FFF785FF9CE7B6
:101B20002046FFF77FFF2046FFF77EFFABE720460A
:101B3000FFF778FF2046FFF777FFBAE72046FFF769
:101B400071FF2046FFF770FFC9E723686FF00102BD
:101B50001A612046FEF7D0FBC9E723686FF08002C8
:101B60001A61204600F081F8C7E723686FF0400251
:101B70001A612046FFF759FFC5E723686FF020027E
:101B80001A61204600F070F8C3E7000003681F4A9E
:101B900090420AD0B0F1804F07D0A2F59432904223
:101BA00003D002F58062904203D123F070034A68AB
:101BB0001343164A90420AD0B0F1804F07D0A2F5E5
:101BC0009432904203D002F58062904203D123F414
:101BD0004073CA68134323F080034A6913430360C8
:101BE0008B68C3620B688362084B98420AD001235A
:101BF0004361036913F0010F03D0036923F001036C
:101C0000036170470B690363F1E700BF002C0140DB
:101C100040B310B5044690F83D30F3B1022384F888
:101C20003D30214651F8040BFFF7B0FF012384F843
:101C3000463084F83E3084F83F3084F8403084F8F1
:101C4000413084F8423084F8433084F8443084F8DA
:101C5000453084F83D30002010BD80F83C30FFF75F
:101C6000ABFEDBE7012070477047704700F10803C7
:101C700043604FF0FF328260C36003610023036062
:101C8000704700230361704743684B609A688A601D
:101C9000516099600861036801330360704730B494
:101CA0000D68B5F1FF3F11D000F108031C465B68D9
:101CB0001A68AA42FAD963684B6099608C606160C7
:101CC000086103680133036030BC70470469F2E7C0
:101CD0000369416882688A60416851605A6882423B
:101CE00006D0002202611A68013A1A60186870472B
:101CF00082685A60F5E738B5E0B10D46044600F059
:101D0000D9FD2368E26B216C01FB0230A06000204A
:101D1000A0636360013A02FB0133E360FF2384F8B0
:101D2000443084F84530FDB9236963B900F0E4FD1F
:101D3000012038BD4FF0500383F31188BFF36F8F3C
:101D4000BFF34F8FFEE704F1100000F02BFC0028DA
:101D5000ECD04FF0E0234FF08052C3F8042DBFF3D6
:101D60004F8FBFF36F8FE1E704F11000FFF77EFFA5
:101D700004F12400FFF77AFFD8E710B50346029874
:101D80000C4631B90060C36304640121FFF7B3FF5F
:101D900010BD0260F7E740B94FF0500383F311889C
:101DA000BFF36F8FBFF34F8FFEE710B584B01C46B3
:101DB000844653B192B189B94FF0500383F311882F
:101DC000BFF36F8FBFF34F8FFEE74FF0500383F3E6
:101DD0001188BFF36F8FBFF34F8FFEE76AB14823BF
:101DE0000393039B482B13D04FF0500383F31188C8
:101DF000BFF36F8FBFF34F8FFEE70029EFD04FF097
:101E0000500383F31188BFF36F8FBFF34F8FFEE74B
:101E1000039B012384F8463000949DF818306046F7
:101E2000FFF7ABFF204604B010BD0000084B1B6855
:101E30001B6823B9074B4FF0FF321A607047044B01
:101E40001B68DB68DB685A68024B1A60704700BF8A
:101E5000E40300207C0300202DE9F0470746984664
:101E6000089DDDF824900A9C266B02F18042013A1D
:101E700006EB820626F00706C1B308464FF0000CB9
:101E8000BCF10F0F09D810F80C2004EB0C0383F8F9
:101E9000342012B10CF1010CF2E7002384F8433036
:101EA000062D00D90625E56265644FF0000AC4F8E6
:101EB00048A0201DFFF7E5FE04F11800FFF7E1FE42
:101EC0002461C5F10705A5616462C4F84CA084F8DB
:101ED00050A042463946304600F0C4FC2060B9F1BB
:101EE000000F01D0C9F80040BDE8F087002384F856
:101EF0003430D5E738B5002407E004EB84029300C2
:101F00000E481844FFF7B2FE0134062CF5D90C4DEB
:101F10002846FFF7ABFE0B4C2046FFF7A7FE0A480A
:101F2000FFF7A4FE0948FFF7A1FE0948FFF79EFE50
:101F3000084B1D60084B1C6038BD00BF100400201A
:101F4000FC030020E8030020CC030020B80300209D
:101F5000A0030020E4030020E003002010B50446A5
:101F600000F0A8FC214A136801331360204B1B6862
:101F70005BB1204B1B686BB91D4B1B68DA6AE36AC7
:101F80009A4207D81A4B1C6004E0194B1C60136876
:101F9000012B28D0184A136801331360E06A01232B
:101FA0008340164A11680B43136000EB8000211D2B
:101FB000134B03EB8000FFF767FE00F09DFC0D4B19
:101FC0001B687BB10A4B1B68DA6AE36A9A4209D242
:101FD0004FF0E0234FF08052C3F8042DBFF34F8F32
:101FE000BFF36F8F10BDFFF785FFD3E79C03002081
:101FF0009C04002090030020800300209403002014
:102000001004002010B5044690F8513063B1012B44
:1020100011D0022B0ED04FF0500383F31188BFF381
:102020006F8FBFF34F8FFEE7006B00F03FFE20463F
:1020300000F03CFE10BD00F039FEFBE70F4B1B68C3
:10204000D3B110B500F036FC0D4BDB68DC68201D09
:10205000FFF73EFE0B4A1368013B1360074A136803
:10206000013B136000F048FC2046FFF7CBFF034B19
:102070001B68002BE6D110BD704700BFB4030020E1
:10208000B80300209C03002070B504460D461D4B8C
:102090001E681D4B18680430FFF71AFE48B91A4B2A
:1020A0001B68DB6A01229A4018490B6823EA020385
:1020B0000B60B4F1FF3F0DD03444134B1B685C60E0
:1020C000A64210D9124B18680F4B19680431FFF75C
:1020D000E6FD70BD002DEFD00B4B196804310D48A3
:1020E000FFF7D2FDF5E70C4B1868074B1968043170
:1020F000FFF7D5FD094B1B68A342EAD9074B1C60CB
:10210000E7E700BF980300209C0400209403002010
:10211000E0030020A0030020E40300207C03002053
:1021200008B50BE04FF0E0234FF08052C3F8042DC8
:10213000BFF34F8FBFF36F8FFFF7E7FBFFF77EFF14
:10214000024B1B68012BEDD8F6E700BF10040020FE
:1021500030B587B00B9C7CB10C9DB5B1542504956E
:10216000049D542D1AD04FF0500383F31188BFF310
:102170006F8FBFF34F8FFEE74FF0500383F311884B
:10218000BFF36F8FBFF34F8FFEE74FF0500383F322
:102190001188BFF36F8FBFF34F8FFEE7049D0C9D37
:1021A0002C63022485F8514000240394029505AC69
:1021B00001940A9C0094FFF74FFE0C98FFF7CEFEA7
:1021C000059807B030BD2DE9F04385B00746884635
:1021D00014461E46900000F0E7FC08B381465420E8
:1021E00000F0E2FC0546A8B1C0F83090002380F86A
:1021F0005130039302900D9B01930C9B0093334647
:10220000224641463846FFF727FE2846FFF7A6FE3E
:10221000012007E0484600F049FD4FF0FF3001E0A3
:102220004FF0FF3005B0BDE8F083000010B588B076
:1022300000240594069407AA06A905A8FFF766FBE3
:10224000059B0293069B019300942346079A0E492F
:102250000E48FFF77DFF0E4B186090B14FF0500312
:1022600083F31188BFF36F8FBFF34F8F094B4FF08C
:10227000FF321A60084B01221A60084B1C6000F004
:10228000A3FB08B010BD00BFC42E00082121000828
:10229000780300207C030020900300209803002096
:1022A000024A136801331360704700BF74030020B3
:1022B000F8B53A4B1B68002B69D1394B1D680135C5
:1022C0001D60C5B9374B1B681B6843B14FF0500305
:1022D00083F31188BFF36F8FBFF34F8FFEE7314A4F
:1022E0001168314B186810601960304A1368013367
:1022F0001360FFF79BFD2E4B1B68AB423DD90027B7
:102300002C4B1B68DB6A03EB83039A002A4B9B5818
:10231000012B00D90127294B1B68002B3CD001273A
:102320003AE001271F4B1B681B6843B31D4B1B681A
:10233000DB68DC6863689D4226D3261D3046FFF7C4
:10234000C7FCA36A1BB104F11800FFF7C1FCE36AE4
:1023500001229A401A49086802430A6003EB83038A
:102360009A00314614481044FFF78EFCE26A114B84
:102370001B68DB6A9A42D4D2D4E70027D2E70C4B21
:102380004FF0FF321A60BBE7094A1360B8E70D4A05
:1023900013680133136000273846F8BD740300202A
:1023A00098030020E4030020E003002084030020C1
:1023B0007C0300209C0400201004002088030020DF
:1023C000940300208C03002038B5354B1B6843B9BB
:1023D0004FF0500383F31188BFF36F8FBFF34F8F1C
:1023E000FEE700F067FA2E4B1A68013A1A601B6884
:1023F000002B4FD12B4B1B680BB900244BE0002462
:10240000294B1B681BB3284BDB68DC6804F1180000
:10241000FFF75EFC251D2846FFF75AFCE06A012302
:102420008340224A11680B43136000EB8000294669
:102430001F4B03EB8000FFF727FCE26A1D4B1B6874
:10244000DB6A9A42DCD31C4B01221A60D8E70CB13C
:10245000FFF7ECFC194B1C6884B9174B1C68D4B10E
:102460004FF0E0234FF08052C3F8042DBFF34F8F9D
:10247000BFF36F8F01240EE0013C07D0FFF718FF78
:102480000028F9D00C4B01221A60F5E70B4B002213
:102490001A60E2E7002400F02FFA204638BD00BFA2
:1024A000740300209C030020CC0300209403002030
:1024B000100400209C040020880300208C030020CE
:1024C00010B5A8B10446104B1B6843B14FF0500340
:1024D00083F31188BFF36F8FBFF34F8FFEE7FFF7D2
:1024E000DFFE00212046FFF7CFFDFFF76DFF48B963
:1024F0004FF0E0234FF08052C3F8042DBFF34F8F0D
:10250000BFF36F8F10BD00BF74030020204B1B680A
:102510001BB1204B01221A6070471E4B00221A602B
:102520001D4B1B68B3FA83F3DBB2C3F11F0303EB4C
:1025300083018A0019498A5842B94FF0500383F346
:102540001188BFF36F8FBFF34F8FFEE7134803EB84
:1025500083018A00024451684968516003EB830C8F
:102560004FEA8C0208320244914209D003EB830304
:102570009A000A4B13445B68DA68094B1A6070478B
:10258000486862469100054A0A445060EEE700BF81
:10259000740300208803002094030020100400200E
:1025A0009C04002038B5C368DC6824B304F1180526
:1025B0002846FFF78DFB184B1B682BBB251D2846B3
:1025C000FFF786FBE06A01238340144A11680B433E
:1025D000136000EB80002946114B03EB8000FFF7EE
:1025E00053FBE26A0F4B1B68DB6A9A4211D9012048
:1025F0000D4B186038BD4FF0500383F31188BFF3C3
:102600006F8FBFF34F8FFEE729460848FFF73CFB6B
:10261000E7E70020EEE700BF7403002094030020EA
:10262000100400209C04002088030020CC0300201C
:1026300038B505460C4600F03DF91A4B1B68DB6CBB
:102640002BB9184B1B68012283F85020ACB900F05D
:1026500053F900F02FF9134B1B68DC6C24B1DDB18A
:10266000104B1B680022DA640E4B1B68002283F8B3
:10267000502000F041F9204638BD11462046FFF7B2
:1026800003FD4FF0E0234FF08052C3F8042DBFF359
:102690004F8FBFF36F8FDAE7024B1B68621EDA645D
:1026A000E2E700BF9C040020F8B5E0B10D46044607
:1026B00000F0EAF9EFF311834FF0500282F3118832
:1026C000BFF36F8FBFF34F8F1E4694F85030DBB2CD
:1026D000022284F85020E26C0132E264012B0BD01C
:1026E00086F31188F8BD4FF0500383F31188BFF3D0
:1026F0006F8FBFF34F8FFEE7A36A43B14FF05003D4
:1027000083F31188BFF36F8FBFF34F8FFEE7144B36
:102710001B68FBB9271D3846FFF7DAFAE06A012388
:102720008340104A11680B43136000EB8000394668
:102730000D4B03EB8000FFF7A7FAE26A0B4B1B6817
:10274000DB6A9A42CCD90DB101232B60084B0122E0
:102750001A60C5E704F118010648FFF795FAECE79F
:102760007403002094030020100400209C04002027
:1027700088030020CC030020842801D00330704758
:102780000020704708B5FFF751FD002008BD2DE976
:10279000F04387B00E464469C4B18569B5B1476856
:1027A000D0F80080D0F81090B0F90800FFF7E4FFEF
:1027B00002950194009033464A4641463846FFF759
:1027C000C7FC0590059807B0BDE8F083446805682C
:1027D0000769B0F90800FFF7CFFF05AB0193009040
:1027E0003346BAB229462046FFF7EDFC0128E9D06E
:1027F0000020E8E708B500B90120FFF761FE0020DE
:1028000008BD000082B0002301930D4B1B68B3F19B
:10281000FF3F08D04FF0500383F31188BFF36F8F51
:10282000BFF34F8FFEE74FF0500383F31188BFF3E0
:102830006F8FBFF34F8F019B002BFCD002B070470E
:102840000C00002006480068006880F3088862B623
:1028500061B6BFF34F8FBFF36F8F00DF00BF000083
:1028600008ED00E04FF0807340F8043C21F00101D6
:1028700040F8081C034B40F80C3C40F8202C403832
:10288000704700BF0528000800000000000000009D
:10289000074B19680868B0E8F00F80F30988BFF3A8
:1028A0006F8F4FF0000080F311884EF00D0E7047CF
:1028B0009C0400204FF0500383F31188BFF36F8F07
:1028C000BFF34F8F0B4A136801331360012B00D005
:1028D00070474FF0E023D3F8043D13F0FF0FF7D01B
:1028E0004FF0500383F31188BFF36F8FBFF34F8F07
:1028F000FEE700BF0C000020094B1B6843B94FF0F6
:10290000500383F31188BFF36F8FBFF34F8FFEE740
:10291000013B034A13600BB983F31188704700BF72
:102920000C0000200000000000000000000000007B
:10293000EFF30980BFF36F8F0D4B1A6820E9F00F9A
:1029400010602DE908404FF0500080F31188FFF728
:10295000DDFD4FF0000080F31188BDE808401968E4
:102960000868B0E8F00F80F30988BFF36F8F7047F5
:102970009C04002008B54FF0500383F31188BFF387
:102980006F8FBFF34F8FFFF793FC28B14FF0E02319
:102990004FF08052C3F8042D002383F3118808BD43
:1029A0004FF0E022002313619361054B1B6805493A
:1029B000A1FB03139B09013B53610723136170477C
:1029C00008000020D34D621010B582B02A4B1A784F
:1029D000D2B20192FF221A701B78DBB28DF803305D
:1029E0009DF8033003F05003244A1370244B072250
:1029F0001A6009E0224A1368013B13609DF8033016
:102A00005B00DBB28DF803309DF8033013F0800FCC
:102A1000F0D11B4B1B68032B08D04FF0500383F3FE
:102A20001188BFF36F8FBFF34F8FFEE71B02144A6D
:102A3000136003F4E0631360019BDBB20E4A137072
:102A40004FF0E023D3F8202D42F47002C3F8202D7C
:102A5000D3F8202D42F07042C3F8202DFFF7A0FFDD
:102A60000024084B1C60FFF7EDFEFFF74FFDFFF75A
:102A7000C9FE204602B010BD00E400E0A40400201E
:102A8000A00400200C000020EFF305830F2B0FD9CA
:102A9000114A9B5CDBB2114A12789A4208D94FF076
:102AA000500383F31188BFF36F8FBFF34F8FFEE79F
:102AB0004FF0E023D3F80C3D03F4E063084A1268BA
:102AC000934208D94FF0500383F31188BFF36F8FFF
:102AD000BFF34F8FFEE77047F0E300E0A40400204F
:102AE000A0040020124A12F0070F1ED0D11D21F0C1
:102AF0000701C1F5406313440A460E4802600021F5
:102B000041601344083B23F007030B4803605960FE
:102B10001960991A51601360084B1960084B1960CD
:102B2000084B4FF000421A6070474FF44063E4E7EF
:102B3000C8040020C0040020BC040020B40400200D
:102B4000B8040020A8040020154B1A461B688342D5
:102B5000FBD3516802EB010C844509D0416800EBBE
:102B6000010C634509D00360904218D01060704793
:102B70004068014451601046F0E710B4094C2468E5
:102B8000A3420AD05B681944416013681B68036064
:102B9000904200D0106010BC70470460F8E77047A6
:102BA000C0040020BC04002038B50446FFF778FBC1
:102BB000384B1B68B3B1384B1B681C4250D1002CFA
:102BC00050D004F1080214F0070F02D022F00702DF
:102BD0000832002A55D0314B1B68934253D33049F9
:102BE0000C6804E0FFF77EFFE5E721461C466368BA
:102BF000934202D22368002BF7D1264B1B68A342D5
:102C000043D00D68083523680B6063689B1A102B4E
:102C100010D9A01810F0070F08D04FF0500383F31D
:102C20001188BFF36F8FBFF34F8FFEE74360626081
:102C3000FFF78AFF626819490B689B1A0B601949F4
:102C400009688B4201D217490B60134B1B68134371
:102C5000636000232360144A13680133136002E0A9
:102C6000002500E00025FFF7AFFB15F0070F0ED0A1
:102C70004FF0500383F31188BFF36F8FBFF34F8F73
:102C8000FEE70025EFE70025EDE70025EBE7284606
:102C900038BD00BFBC040020A8040020B8040020F8
:102CA000C0040020B4040020B0040020002834D068
:102CB00038B50446A0F1080550F8043C174A1268DC
:102CC000134208D14FF0500383F31188BFF36F8F85
:102CD000BFF34F8FFEE750F8081C41B14FF050038F
:102CE00083F31188BFF36F8FBFF34F8FFEE723EAA3
:102CF000020340F8043CFFF7D3FA54F8041C084AD6
:102D000013680B4413602846FFF71EFF054A13683B
:102D100001331360FFF758FB38BD7047A80400204B
:102D2000B8040020AC04002010B584B00A22114978
:102D30001148FDF721FE114C029404F15403019354
:102D40000323009300234FF480620D490D48FFF7E1
:102D5000FFF944F8040C002300930B4B03F14802E5
:102D600002210A20FFF717F804F6FC74A06504B0EE
:102D700010BD00BFC8100020A400002028110020B2
:102D8000CC2E0008CD2D00088021002010B4024672
:102D9000C36A90F8280052F820401B1BD3620B44F2
:102DA000D36242F820100130C0B282F8280009280E
:102DB00002D9002182F828100349A1FB0313C3F3B1
:102DC000CF00108610BC7047CDCCCCCC10B508E03D
:102DD000094B33F824100948FFF7D8FF0134092CB8
:102DE000F6DD0748FEF72AFD4FF0FF310120FFF71F
:102DF0001FFC0024F3E700BFC8100020F0100020E3
:102E00003000002000B583B00023019301A9094BD5
:102E10001868FFF749FC019B4BB14FF0E0234FF0DE
:102E20008052C3F8042DBFF34F8FBFF36F8F03B0F1
:102E30005DF804FB24110020FEF766FD0B480C49E9
:102E40000C4A002302E0D458C4500433C4188C4206
:102E5000F9D3094A094C002301E013600432A2426D
:102E6000FBD3FDF799F9FDF7EDFA7047000000205C
:102E7000100000200C2F000810000020DC21002092
:102E8000FEE70000F8B500BFF8BC08BC9E467047DE
:0C2E9000F8B500BFF8BC08BC9E467047B7
:102E9C00B82E0008ED020008000000000000000041
:102EAC008000000000000000000000006465666106
:102EBC00756C745461736B0049444C450000000000
:102ECC0048554D4944495459000000000102000086
:102EDC0002030405060708090A0B0C0D0E0F10104F
:102EEC0000000000010203040000000000000000CC
:082EFC000102030406070809A6
:042F04007901000847
:042F0800510100086B
:102F0C00010000001000000000127A00AAAAAAAA70
:0400000508002E3988
:00000001FF
