:020000040800F2
:100000000050002009450008E1040008E30400084E
:10001000E5040008E7040008E90400080000000007
:10002000000000000000000000000000E12C0008BB
:10003000EB04000800000000812D0008C52D000819
:100040005145000851450008514500085145000838
:100050005145000851450008514500085145000828
:10006000514500085145000851450008ED040008BD
:100070005145000851450008514500085145000808
:1000800051450008FD0400080D0500085145000811
:1000900051450008514500085145000851450008E8
:1000A000514500081D05000851450008514500084C
:1000B0005145000851450008514500082D0500082C
:1000C0003D0500085145000851450008514500080C
:1000D00051450008514500085145000851450008A8
:1000E0005145000851450008514500080000000036
:1000F0000000000000000000000000000000000000
:0C01000000000000000000005FF808F1A3
:100110000348044B834202D0034B03B11847704796
:100120009401002094010020000000000548064BC7
:100130001B1AD90F01EBA301491002D0034B03B1E5
:10014000184770479401002094010020000000002F
:1001500010B5064C237843B9FFF7DAFF044B13B10F
:100160000448AFF300800123237010BD94010020E8
:10017000000000005445000808B5044B1BB10449B9
:100180000448AFF30080BDE80840CFE7000000005E
:10019000980100205445000870B50F4B0F4DAB423D
:1001A000A3EB050607D00024B61055F8043B013434
:1001B0009847A642F9D804F0CDF9094D094B5E1BCA
:1001C000AB424FEAA60606D0002455F8043B0134A2
:1001D0009847A642F9D870BDE8450008E8450008F0
:1001E000E8450008EC45000870B5860747D0541E66
:1001F000002A3ED00346CAB201E0013C39D303F8DD
:10020000012B9D07F9D1032C2CD9CDB205EB052587
:100210000F2C1A4605EB054534D9A4F1100C2CF02F
:100220000F0603F1100EB6444FEA1C1CC2E900553C
:10023000C2E9025510327245F8D10CF1010214F0F6
:100240000C0F03EB021204F00F0C13D0ACF10403FB
:1002500023F003030433134442F8045B9342FBD1BD
:100260000CF003042CB1C9B21C4403F8011BA342D7
:10027000FBD170BD64461346002CF4D1F9E7034668
:100280001446C0E7A446E1E784B00F4B9A6942F0F8
:1002900020029A619A6902F020020192019A9A69F9
:1002A00042F004029A619A6902F004020292029AF0
:1002B0009A6942F008029A619B6903F0080303936C
:1002C000039B04B0704700BF0010024000B583B02C
:1002D0000E4B5A6942F001025A615B6903F0010357
:1002E0000193019B002205210B2001F015FD0B203D
:1002F00001F022FD00220521112001F00DFD112049
:1003000001F01AFD03B05DF804FB00BF00100240CD
:1003100008B5012002F094FCFBE7000008B5026874
:10032000034B9A4200D008BD00F0BCFDFBE700BFC4
:10033000002C014072B6FEE700B585B000230193A2
:10034000029303932048214A02604FF48072826036
:100350000122027303754FF46022C26143600423DB
:10036000036100F03DFC28BB0123019302930723A6
:10037000039301A9144800F08BFAE8B90223019312
:10038000029301A9104800F083FAB8B9032301933E
:10039000029301A90C4800F07BFA88B90423019369
:1003A00002930DEB0301084800F072FA50B905B052
:1003B0005DF804FBFFF7BEFFFFF7BCFFFFF7BAFFD6
:1003C000FFF7B8FFFFF7B6FF9002002000240140BE
:1003D00008B50A480A4B03600A4B43600023836058
:1003E000C3604FF48042026143618361C361036271
:1003F00003F06EF900B908BDFFF79CFFF80100207B
:1004000000540040A086010000B595B028220021CC
:100410000DEB0200FFF7E8FE002305930693079318
:1004200008930993019302930393049301220A9280
:100430004FF480330B930E920222119212934FF4D9
:10044000E01313930AA800F055FDC8B90F230593D4
:1004500002210691002307934FF4806208920993CA
:1004600005A800F079FF68B9022301934FF4004317
:10047000039301A801F06AF830B915B05DF804FBE8
:10048000FFF758FFFFF756FFFFF754FF00B589B09D
:1004900000F0F6FCFFF7B8FFFFF7F6FEFFF716FFD8
:1004A000FFF74AFFFFF794FF02F06EFE02F0E4F858
:1004B0000DF1040C084C0FCCACE80F0094E80700D9
:1004C0008CE80700002101A802F087FB034B1860AD
:1004D00002F07EFBFEE700BF6C450008B001002083
:1004E000FEE7FEE7FEE7FEE7FEE7704708B50248D5
:1004F00001F026FB08BD00BF4C02002008B50248F1
:1005000001F01EFB08BD00BFB401002008B5024881
:1005100000F030F908BD00BF9002002008B5024885
:1005200001F0AAFC08BD00BF1805002008B502486C
:1005300003F0B2FE08BD00BFF801002008B5024874
:1005400003F07AFF08BD00BFF801002000B583B0BA
:10055000114B9A6942F001029A619A6902F0010214
:100560000092009ADA6942F08052DA61DB6903F0A6
:1005700080530193019B00220F216FF0010001F0D5
:10058000CBFB064A536823F0E06343F000735360EB
:1005900003B05DF804FB00BF001002400000014002
:1005A00010B586B000230293039304930593026869
:1005B000234B9A4201D006B010BD044603F56C43AC
:1005C0009A6942F400729A619A6902F40072009288
:1005D000009A9A6942F004029A619B6903F004034D
:1005E0000193019B1E2302930323039302A9154841
:1005F00001F0A4F81448154B0360002343608360A6
:100600008023C3604FF4007303614FF400634361C0
:10061000202383614FF40053C36101F0B3F958B94B
:10062000094B23625C6200220521122001F074FB59
:10063000122001F081FBBEE7FFF77CFEF0E700BF70
:1006400000240140000801404C0200200800024044
:1006500030B587B000230293039304930593026897
:10066000274B9A4201D007B030BD0446254DAB69F7
:1006700043F00803AB61AB6903F008030093009BF0
:10068000C0230293122303930323059302A91E4858
:1006900001F054F8EB6943F40013EB61EB6903F4E8
:1006A00000130193019B1948194B03600023436019
:1006B00083608023C3604FF4007303614FF40063D1
:1006C0004361202383614FF48053C36101F05AF9E1
:1006D00098B90E4BA3635C62002205211F2001F034
:1006E0001BFB1F2001F028FB00220521202001F028
:1006F00013FB202001F020FBB5E7FFF71BFEE8E726
:100700000054004000100240000C0140B4010020E1
:100710008000024008B5436A9A6A12F0500F1ED159
:100720009A6A42F400729A621A68926802F460222D
:10073000B2F5602F03D0184602F0BAFD08BD1A7B4F
:10074000002AF8D19A6A22F480729A629A6A12F4A4
:10075000805FF0D19A6A42F001029A62EBE71B6A6D
:100760001B6B9847EAE7704708B5406AFFF7FBFF45
:1007700008BD704770B5044603681E685D6815F0D3
:10078000200F17D016F0020F14D0826A12F0100F4B
:1007900003D1826A42F4007282629A6802F4602293
:1007A000B2F5602F33D0204602F082FD23686FF04F
:1007B00012021A6015F0800F22D016F0040F1FD01D
:1007C000A36A13F0100F03D1A36A43F40053A3628A
:1007D0002268936803F4E043B3F5E04F2ED05368EA
:1007E00013F4806F05D1936803F46023B3F5602F91
:1007F00021D0204600F042FB23686FF00C021A6003
:1008000015F0400F02D016F0010F28D170BD227BE9
:10081000002AC8D15A6822F020025A60A36A23F441
:100820008073A362A36A13F4805FBCD1A36A43F010
:100830000103A362B7E7237B002BDAD1536823F0CF
:1008400080035360A36A23F48053A362A36A13F462
:10085000807FCED1A36A43F00103A362C9E7A36AF4
:1008600043F48033A3622046FFF783FF23686FF0D1
:1008700001021A60CAE708B5406A836A43F0400380
:100880008362C36A43F00403C36202F02DFD08BD16
:1008900030B482B00022019290F82420012A00F0A6
:1008A0008F800346012280F824204A68062A2DD82A
:1008B0000468606B02EB8202053A4FF01F0C0CFAE1
:1008C00002FC20EA0C000D6805FA02F202436263A2
:1008D0000A68092A38D91C68E06802EB42021E3A0D
:1008E0004FF0070C0CFA02FC20EA0C008D6805FAA8
:1008F00002F20243E2600A68103A012A34D9002069
:10090000002283F8242002B030BC70470C2A0DD896
:100910000568286B02EB8202233A1F24944020EAE8
:1009200004000C68944020432863D1E70568E86A16
:1009300002EB8202413A1F24944020EA04000C6832
:1009400094402043E862C3E71C68206902EB42023E
:100950004FF0070C0CFA02FC20EA0C008D6805FA37
:1009600002F202432261C6E71A681648824205D0A5
:100970009A6A42F020029A620120C1E7906810F45E
:10098000000F1BD1906840F4000090600A68102AA4
:1009900001D00020B4E70C4A12680C49A1FB0212F6
:1009A000920C02EB82025200019202E0019A013A9B
:1009B0000192019A002AF9D10020A1E700209FE7C7
:1009C0000220A0E7002401400800002083DE1B4332
:1009D00030B583B00023019303689A6812F0010FC9
:1009E00033D104469A6842F001029A60184B1B68A2
:1009F000184AA2FB03239B0C019302E0019B013BDD
:100A00000193019B002BF9D100F058FA05462368A9
:100A10009B6813F0010F16D100F050FA431B022B14
:100A2000F5D923689B6813F0010FF0D1A36A43F056
:100A30001003A362E36A43F00103E362002384F836
:100A40002430012002E0002000E0002003B030BD8F
:100A50000800002083DE1B43F8B504460D46164609
:100A600001684448814259D0434B994256D094F88A
:100A70002430012B7CD0012384F824302046FFF75A
:100A8000A7FF074600286ED1A16A21F4706121F00A
:100A9000010141F48071A1622268374B9A4244D02F
:100AA000A36A23F48013A362536813F4806F05D004
:100AB000A36A23F4405343F48053A362A36A13F45C
:100AC000805F48D0E36A23F00603E362002384F8E2
:100AD0002430236A294A9A62236A294ADA62236AFD
:100AE000284A1A6323686FF002021A60226893682A
:100AF00043F480739360216833462A464C31206A60
:100B000000F074FF23689A6802F46022B2F5602F47
:100B100024D09A6842F480129A6027E0154B5B68F3
:100B200013F4702FA3D0012720E0A3F580635B6846
:100B300013F4702FB4D0A36A43F48013A3620D4B57
:100B40005B6813F4806FB9D0A36A23F4405343F475
:100B50008053A362B2E70023E362B7E79A6842F4E6
:100B6000A0029A6002E0002384F824303846F8BDE1
:100B70000227FBE700240140002801401507000878
:100B8000690700087708000838B503689A6812F00A
:100B9000010F01D1002038BD04469A6822F00102FD
:100BA0009A6000F08BF9054623689B6813F0010FEB
:100BB00013D000F083F9431B022BF5D923689B68FF
:100BC00013F0010FF0D0A36A43F01003A362E36AAD
:100BD00043F00103E3620120DDE70020DBE70000D2
:100BE00000287BD070B50446836A002B4DD0204688
:100BF000FFF7CAFFA36A13F0100369D1002867D179
:100C0000A26A22F4885222F0020242F00202A26298
:100C10006268E1690A43217B42EA4102A568B5F5B1
:100C2000807F02D0012D36D01D46267D012E35D085
:100C30002668716821F46941294371602568AE68AE
:100C4000274931401143A960A168B1F5807F01D0E7
:100C5000012902D12369013B1B052568E96A21F4BA
:100C600070010B43EB62236899681E4B0B409A425C
:100C700025D0A36A23F0120343F01003A362E36AB2
:100C800043F00103E362012027E0C36280F82430CF
:100C9000FFF786FCABE74FF48075C6E731B9A16971
:100CA000013945EA413141F40065C1E7A16A41F0EB
:100CB0002001A162E16A41F00101E162B8E700238D
:100CC000E362A36A23F0030343F00103A36204E099
:100CD000A36A43F01003A362012070BD0120704796
:100CE000FDF7E1FFFE0E1FFF90F82430012B13D01B
:100CF00010B50446012380F82430FFF745FF38B9CA
:100D0000A36A23F4885323F0010343F00103A36291
:100D1000002384F8243010BD0220704790F824305E
:100D2000012B28D010B50446012380F82430FFF7AA
:100D30002BFF50B92268936823F480739360226A72
:100D400092F82130DBB2022B03D0002384F8243048
:100D500010BD104600F085FE40B9A36A23F4885305
:100D600023F0010343F00103A362EEE7A36A43F01B
:100D70004003A362E9E702207047000070B582B02B
:100D80000023019390F82430012B72D004460123F4
:100D900080F82430FFF7F8FE2046FFF719FE0546DD
:100DA00028B1002384F82430284602B070BDA36A1D
:100DB00023F4885323F0020343F00203A3622E4B73
:100DC0001E68022000F04EFCB6FBF0F6760001969D
:100DD00002E0019B013B0193019B002BF9D12268AA
:100DE000936843F00803936000F068F806462368B0
:100DF0009A6812F0080F14D000F060F8801B0A28DF
:100E0000F5D923689B6813F0080FF0D0A36A23F08C
:100E1000120343F01003A362002384F82430012559
:100E2000C2E79A6842F004029A6000F047F806466A
:100E300023689B6813F0040F14D000F03FF8801B68
:100E40000A28F5D923689B6813F0040FF0D0A36A31
:100E500023F0120343F01003A362002384F824302C
:100E60000125A1E7A36A23F0030343F00103A36272
:100E700097E7022598E700BF0800002070470000B0
:100E800008B5074A136843F010031360032000F00D
:100E900031FF0F2000F06CFFFFF758FB002008BD6A
:100EA00000200240034A1168034B1B780B44136077
:100EB000704700BFC002002000000020014B1868EE
:100EC000704700BFC002002082B0084B1B68084A70
:100ED000A2FB03235B0A00FB03F3019300BF019B0A
:100EE0005A1E0192002BF9D102B070470800002071
:100EF000D34D6210002800F0F18170B582B0044635
:100F0000036813F0010F2CD0994B5B6803F00C03BE
:100F1000042B1DD0964B5B6803F00C03082B12D0FA
:100F20006368B3F5803F41D0002B55D103F1804376
:100F300003F504331A6822F480321A601A6822F426
:100F400080221A6037E08A4B5B6813F4803FE7D059
:100F5000874B1B6813F4003F03D06368002B00F03D
:100F6000BF81236813F0020F75D0814B5B6813F0CB
:100F70000C0F5FD07E4B5B6803F00C03082B54D042
:100F80002369002B00F08A807A4B01221A60FFF758
:100F900095FF0546764B1B6813F0020F75D1FFF7DE
:100FA0008DFF401B0228F5D903209EE1704A13688B
:100FB00043F480331360636843B3FFF77FFF054654
:100FC0006B4B1B6813F4003FCBD1FFF777FF401B3F
:100FD0006428F5D9032088E1B3F5A02F09D0644B2C
:100FE0001A6822F480321A601A6822F480221A6089
:100FF000E1E703F18043A3F53C331A6842F4802211
:101000001A601A6842F480321A60D4E7FFF756FF7C
:101010000546574B1B6813F4003FA2D0FFF74EFF65
:10102000401B6428F5D903205FE1514B5B6813F442
:10103000803FA5D14E4B1B6813F0020F03D02369EC
:10104000012B40F04F814A4A136823F0F80361698D
:1010500043EAC1031360236813F0080F33D0A36978
:10106000002B5CD0434B0122C3F88024FFF726FFFE
:1010700005463F4B5B6A13F0020F21D1FFF71EFFBD
:10108000401B0228F5D903202FE1394A136823F0C9
:10109000F803616943EAC1031360DCE7354B0022C2
:1010A0001A60FFF70BFF0546314B1B6813F0020F68
:1010B000D1D0FFF703FF401B0228F5D9032014E12C
:1010C0000120FFF701FF236813F0040F00F0968062
:1010D000274BDB6913F0805F34D1254BDA6942F08E
:1010E0008052DA61DB6903F080530193019B012593
:1010F000214B1B6813F4807F26D0E368012B3DD081
:10110000002B53D103F1804303F504331A6A22F014
:1011100001021A621A6A22F004021A6233E0154BC5
:101120000022C3F88024FFF7C9FE0546104B5B6A16
:1011300013F0020FC7D0FFF7C1FE401B0228F5D9FC
:101140000320D2E00025D3E70B4A136843F48073F1
:101150001360FFF7B3FE0646074B1B6813F4807F4E
:10116000CBD1FFF7ABFE801B6428F5D90320BCE090
:101170000010024000004242007000405F4A136AC3
:1011800043F001031362E36833B3FFF797FE0646AB
:101190005A4B1B6A13F0020F2FD1FFF78FFE801BF3
:1011A00041F288339842F3D903209EE0052B09D001
:1011B000524B1A6A22F001021A621A6A22F00402E1
:1011C0001A62E0E74D4B1A6A42F004021A621A6A88
:1011D00042F001021A62D6E7FFF770FE0646474B5F
:1011E0001B6A13F0020F08D0FFF768FE801B41F264
:1011F00088339842F3D9032077E0E5B9E369002BFF
:1012000072D03E4A526802F00C02082A56D0022BD5
:1012100017D03B4B00221A66FFF750FE0446374BAF
:101220001B6813F0007F47D0FFF748FE001B022821
:10123000F5D9032059E0314AD36923F08053D361B3
:10124000DCE72F4B00221A66FFF738FE05462B4BD2
:101250001B6813F0007F06D0FFF730FE401B02280A
:10126000F5D9032041E0236AB3F5803F1AD0234922
:101270004B6823F47413226A606A024313434B6081
:101280001F4B01221A66FFF719FE04461B4B1B6811
:1012900013F0007F0ED1FFF711FE001B0228F5D9D5
:1012A000032022E0154A536823F40033A1680B435E
:1012B0005360DCE7002018E0002016E0012B16D078
:1012C0000E4B5B6803F48031226A914211D103F422
:1012D0007013626A93420ED1002006E0012070472D
:1012E000012002E0012000E0002002B070BD0120DA
:1012F000FBE70120F9E70120F7E700BF00100240FB
:10130000000042420F4B5B6803F00C02082A01D038
:101310000D487047C3F383420C49885C13F4803F47
:101320000BD0084B5B68C3F34043094AD35C064AC1
:1013300002FB00F0B0FBF3F07047064B03FB00F03C
:10134000704700BF0010024000127A00AC45000850
:10135000A845000800093D00002800F0A08070B5F5
:101360000D460446524B1B6803F007038B420BD219
:101370004F4A136823F007030B431360136803F00D
:1013800007038B4240F08D80236813F0020F17D0C3
:1013900013F0040F04D0474A536843F4E0635360EA
:1013A000236813F0080F04D0424A536843F4605393
:1013B0005360404A536823F0F003A1680B43536025
:1013C000236813F0010F31D06368012B20D0022B6A
:1013D00025D0384A126812F0020F64D035494A68A5
:1013E00022F0030213434B60FFF768FD0646314BC2
:1013F0005B6803F00C036268B3EB820F16D0FFF753
:101400005DFD801B41F288339842F0D9032045E00E
:10141000284A126812F4003FE0D101203EE0254A3C
:10142000126812F0007FD9D1012037E0204B1B68F1
:1014300003F00703AB420AD91D4A136823F00703E0
:101440002B431360136803F00703AB422DD12368CD
:1014500013F0040F06D0174A536823F4E063E168E1
:101460000B435360236813F0080F07D0114A5368E9
:1014700023F46053216943EAC1035360FFF742FF3D
:101480000C4B5B68C3F303130B4AD35CD8400B4B84
:1014900018600B4B186800F06BFC002070BD012039
:1014A00070470120FAE70120F8E70120F6E700BFC6
:1014B0000020024000100240D8450008080000202B
:1014C00004000020014B1868704700BF080000208E
:1014D00008B5FFF7F7FF044B5B68C3F30223034A29
:1014E000D35CD84008BD00BF00100240D0450008C2
:1014F00008B5FFF7E7FF044B5B68C3F3C223034A59
:10150000D35CD84008BD00BF00100240D0450008A1
:101510000F2303600B4B5A6802F0030242605A68C3
:1015200002F0F00282605A6802F4E062C2605B6816
:10153000DB0803F4E0630361034B1B6803F007035C
:101540000B607047001002400020024070B582B06E
:101550000446036813F0010F36D03F4BDB6913F0EC
:10156000805F49D13C4BDA6942F08052DA61DB6935
:1015700003F080530193019B0125384B1B6813F442
:10158000807F3BD0344B1B6A13F4407313D06268E6
:1015900002F440729A420ED02F4A136A23F440702C
:1015A0002F490126C1F840640026C1F8406410624A
:1015B00013F0010F36D1284A136A23F4407361688F
:1015C0000B431362002D3ED1236813F0020F06D0A7
:1015D000214A536823F44043A1680B4353602368B6
:1015E00013F0100F34D01C4A536823F48003E168D1
:1015F0000B43536000202CE00025BEE7174A136818
:1016000043F480731360FFF759FC0646134B1B68C5
:1016100013F4807FB6D1FFF751FC801B6428F5D905
:10162000032016E0FFF74AFC06460B4B1B6A13F03B
:10163000020FC0D1FFF742FC801B41F28833984271
:10164000F3D9032005E0D36923F08053D361BBE7CE
:10165000002002B070BD00BF0010024000700040CA
:101660000000424208B502284ED0102803D00128BD
:1016700028D0002052E02B4B5A68186810F0807078
:101680004CD0C2F383432849C85C12F4803F15D084
:10169000244B5B68C3F34043244AD25C244BB3FB26
:1016A000F2F303FB00F01F4B5B6813F4800F35D19E
:1016B0004000204BA3FB003040082FE01E4B03FBF3
:1016C00000F0F0E7174B1B6A40F202321A40B2F505
:1016D000817F24D003F44073B3F5007F04D0B3F5C9
:1016E000407F09D0002019E00E4A526A12F0020F22
:1016F000F5D049F6404011E00A4B186810F400306C
:101700000CD04FF2244009E0FFF7F2FE054B5B6876
:10171000C3F3813301335B00B0FBF3F008BD4FF43A
:101720000040FBE700100240C0450008BC4500082F
:1017300000127A00ABAAAAAA00093D0070B582B0D7
:101740000024A446A1E07E4DAB4214D00CD8A5F5F0
:101750008015AB420FD005F57025AB420BD0A5F537
:101760008015AB4210D106E0764DAB4203D005F5B3
:101770008035AB4208D18B68002B50D0012B49D06B
:101780004261082400E0CC68BEF1FF0F49D806464C
:101790004FEA8C0233680F25954023EA050304FACB
:1017A00002F2134333604B6813F0805F6BD0664BDB
:1017B0009A6942F001029A619B6903F00103019367
:1017C000019B4FEA9C02951C604B53F825600CF07E
:1017D0000305AD000F23AB4026EA03065C4B98429D
:1017E00026D003F58063984200F08C8003F5806377
:1017F000984200F0898003F58063984216D0042354
:1018000017E0CC680434BFE7CC680834BCE7CC6888
:101810000C34B9E702610824B6E70024B4E70424D5
:10182000B2E7061DACF108029200B3E7032300E023
:101830000023AB4033430232444D45F822304B681D
:1018400013F4801F62D0434A936843EA0E03936007
:101850004B6813F4001F5FD03E4AD36843EA0E037F
:10186000D3604B6813F4003F5CD03A4A536843EAB4
:101870000E0353604B6813F4803F59D0354A136808
:1018800043EA0E0313600CF1010C0B6833FA0CF2FF
:1018900054D0012202FA0CF203EA020E32EA0303E8
:1018A000F1D14B68122B3FF64EAF122B3FF66CAFC7
:1018B00001A555F823F000BF771700088717000827
:1018C000091800081B180008891700088917000864
:1018D0008917000889170008891700088917000868
:1018E0008917000889170008891700088917000858
:1018F00089170008891700088917000803180008CD
:101900000F180008012394E7022392E7114A936815
:1019100023EA0E0393609BE70E4AD36823EA0E0383
:10192000D3609EE70B4A536823EA0E035360A1E796
:10193000084A136823EA0E031360A4E702B070BDDF
:101940000000221000003110001002400000014091
:10195000000801400004014030B40124056CAC4093
:10196000C56B6C60046863604368102B05D0036826
:1019700099600368DA6030BC704703689A60036856
:10198000D960F8E750B310B402460168144B0B4419
:101990001448A0FB03031B099B001364124BD36381
:1019A000022382F8213008686FF30D1053689468A1
:1019B0002343D4682343146923435469234394691C
:1019C0002343D469234303430B6000209063012326
:1019D00082F8213082F8200010BC70470120704747
:1019E000F8FFFDBFCDCCCCCC0000024038B504469A
:1019F00090F82000012832D0012084F8200094F8CB
:101A00002100C0B2012804D0002384F82030022035
:101A100038BD022084F821000020A06325682868D2
:101A200020F0010028602046FFF796FFE36A5BB1D3
:101A30002268136843F00E0313602268136843F0B2
:101A4000010313600020E3E72268136823F0040316
:101A500013602268136843F00A031360EDE7022065
:101A6000D6E7034690F82120D2B2022A06D00422FB
:101A70008263002280F820200120704701680A68F4
:101A800022F00E020A6001680A6822F001020A6070
:101A9000026CC06B012101FA02F2426083F821104E
:101AA000002083F82000704708B590F82130DBB2A1
:101AB000022B03D004238363012008BD026813684E
:101AC00023F00E0313600268136823F00103136010
:101AD0000368194A934214D0143293421FD014322F
:101AE00093421ED0143293421ED0143293421ED021
:101AF0001432934202D04FF0807203E04FF4801210
:101B000000E001220D4B5A60012380F821300023B0
:101B100080F82030436B6BB198470020CDE710224E
:101B2000F0E74FF48072EDE74FF48052EAE74FF4AC
:101B30008032E7E70020C0E70800024000000240D2
:101B400038B5C36B1A6804682568016C04238B40A0
:101B5000134235D015F0040F32D0236813F0200F54
:101B600003D1236823F0040323600368434A9342AC
:101B700014D01432934218D01432934217D0143236
:101B8000934217D01432934217D01432934202D0AA
:101B90004FF0806203E04FF4800200E00422384BF3
:101BA0005A60C36A03B1984738BD4022F7E74FF443
:101BB0008062F4E74FF48042F1E74FF48022EEE7D1
:101BC00002238B4013423CD015F0020F39D023681A
:101BD00013F0200F06D1236823F00A0323600123AA
:101BE00080F821300368254A934214D0143293427E
:101BF0001CD0143293421BD0143293421BD01432A7
:101C000093421BD01432934202D04FF0007203E093
:101C10004FF4001200E00222194B5A60002380F8B2
:101C20002030836A002BBFD09847BDE72022F3E71E
:101C30004FF40072F0E74FF40052EDE74FF400323A
:101C4000EAE708238B401342AED015F0080FABD063
:101C5000236823F00E032360026CC16B012303FA97
:101C600002F24A60836380F82130002380F820303C
:101C7000036B002B98D0984796E700BF08000240FE
:101C80000000024090F8210070470000002808DBA7
:101C90000901C9B200F1604000F5614080F800130D
:101CA000704700F00F000901C9B2014B1954704789
:101CB00014ED00E000B500F00700C0F1070CBCF126
:101CC000040F28BF4FF0040C031D062B0FD9C31EB1
:101CD0004FF0FF3E0EFA0CF021EA000199400EFA97
:101CE00003FE22EA0E0241EA02005DF804FB002333
:101CF000EEE70000074AD36823F4E0631B041B0CE3
:101D0000000200F4E060034343F0BF6343F4003398
:101D1000D360704700ED00E010B50446054BD8686D
:101D2000C0F30220FFF7C6FF01462046FFF7AEFFD3
:101D300010BD00BF00ED00E0002807DB00F01F022F
:101D4000400901239340024A42F82030704700BF07
:101D500000E100E070477047034B0360034B0B60EA
:101D600080231360704700BFC4040020C402002019
:101D700030B589B004461E4B9A6942F400629A61FC
:101D80009B6903F400630193019B02A903A8FFF779
:101D9000BFFBFFF7ADFB174AA2FB00239B0C013BE7
:101DA0001548164A026040F2E732C26043600023E1
:101DB00003618360836100F051F9054610B1284644
:101DC00009B030BD0C4800F01FF805460028F6D1D8
:101DD0001920FFF7B1FF0F2C01D90125EFE70022F1
:101DE00021461920FFF798FF054B1C60E7E700BF6D
:101DF0000010024083DE1B4318050020002C014028
:101E0000040000207047000090F83D30DBB2012B49
:101E100027D1022380F83D300268D36843F00103E4
:101E2000D3600368114A934210D0B3F1804F0DD0B4
:101E3000A2F59432934209D002F58062934205D014
:101E40001A6842F001021A60002070479A6802F096
:101E50000702062A07D01A6842F001021A60002021
:101E60007047012070470020704700BF002C0140E0
:101E7000704770477047704770B504460368DE6866
:101E80001D6915F0020F10D016F0020F0DD06FF083
:101E900002021A610123037703689B6913F0030FA1
:101EA0005ED0FFF7E6FF0023237715F0040F12D072
:101EB00016F0040F0FD023686FF004021A6102239A
:101EC000237723689B6913F4407F4FD02046FFF7A8
:101ED000D0FF0023237715F0080F12D016F0080F5B
:101EE0000FD023686FF008021A6104232377236858
:101EF000DB6913F0030F40D02046FFF7BAFF002341
:101F0000237715F0100F12D016F0100F0FD02368A2
:101F10006FF010021A61082323772368DB6913F43A
:101F2000407F31D02046FFF7A4FF0023237715F030
:101F3000010F02D016F0010F2DD115F0800F02D045
:101F400016F0800F2FD115F0400F02D016F0400F81
:101F500031D115F0200F02D016F0200F33D170BD13
:101F6000FFF786FF2046FFF785FF9CE72046FFF737
:101F70007FFF2046FFF77EFFABE72046FFF778FFA5
:101F80002046FFF777FFBAE72046FFF771FF2046AC
:101F9000FFF770FFC9E723686FF001021A6120465E
:101FA000FEF7BCF9C9E723686FF080021A6120468A
:101FB00000F081F8C7E723686FF040021A612046FD
:101FC000FFF759FFC5E723686FF020021A6120462A
:101FD00000F070F8C3E7000003681F4A90420AD07F
:101FE000B0F1804F07D0A2F59432904203D002F5B1
:101FF0008062904203D123F070034A681343164A6B
:1020000090420AD0B0F1804F07D0A2F594329042AE
:1020100003D002F58062904203D123F44073CA6872
:10202000134323F080034A69134303608B68C36240
:102030000B688362084B98420AD00123436103690D
:1020400013F0010F03D0036923F00103036170470C
:102050000B690363F1E700BF002C014040B310B5EA
:10206000044690F83D30F3B1022384F83D30214618
:1020700051F8040BFFF7B0FF012384F8463084F8D1
:102080003E3084F83F3084F8403084F8413084F8A2
:10209000423084F8433084F8443084F8453084F882
:1020A0003D30002010BD80F83C30FFF7ABFEDBE791
:1020B000012070477047704700F1080343604FF0FC
:1020C000FF328260C3600361002303607047002316
:1020D0000361704743684B609A688A6051609960F9
:1020E0000861036801330360704730B40D68B5F1CF
:1020F000FF3F11D000F108031C465B681A68AA4232
:10210000FAD963684B6099608C606160086103680C
:102110000133036030BC70470469F2E7036941682A
:1021200082688A60416851605A68824206D0002203
:1021300002611A68013A1A601868704782685A602A
:10214000F5E738B5E0B10D46044600F0DBFD236845
:10215000E26B216C01FB0230A0600020A063636091
:10216000013A02FB0133E360FF2384F8443084F832
:102170004530FDB9236963B900F0E6FD012038BDA3
:102180004FF0500383F31188BFF36F8FBFF34F8F6E
:10219000FEE704F1100000F02BFC0028ECD04FF01B
:1021A000E0234FF08052C3F8042DBFF34F8FBFF3ED
:1021B0006F8FE1E704F11000FFF77EFF04F12400C8
:1021C000FFF77AFFD8E710B5034602980C4631B9FD
:1021D0000060C36304640121FFF7B3FF10BD026018
:1021E000F7E740B94FF0500383F31188BFF36F8FC7
:1021F000BFF34F8FFEE710B584B01C46844653B141
:1022000092B189B94FF0500383F31188BFF36F8FF8
:10221000BFF34F8FFEE74FF0500383F31188BFF3F6
:102220006F8FBFF34F8FFEE76AB148230393039B81
:10223000482B13D04FF0500383F31188BFF36F8FF7
:10224000BFF34F8FFEE70029EFD04FF0500383F329
:102250001188BFF36F8FBFF34F8FFEE7039B0123FE
:1022600084F8463000949DF818306046FFF7ABFFC5
:10227000204604B010BD0000084B1B681B6823B942
:10228000074B4FF0FF321A607047044B1B68DB6846
:10229000DB685A68024B1A60704700BFD005002007
:1022A000680500202DE9F04707469846089DDDF8AF
:1022B00024900A9C266B02F18042013A06EB8206CA
:1022C00026F00706C1B308464FF0000CBCF10F0F13
:1022D00009D810F80C2004EB0C0383F8342012B159
:1022E0000CF1010CF2E7002384F84330062D00D9ED
:1022F0000625E56265644FF0000AC4F848A0201D79
:10230000FFF7E5FE04F11800FFF7E1FE2461C5F1D7
:102310000705A5616462C4F84CA084F850A0424649
:102320003946304600F0C4FC2060B9F1000F01D0FE
:10233000C9F80040BDE8F087002384F83430D5E7C1
:1023400038B5002407E004EB840293000E481844DB
:10235000FFF7B2FE0134062CF5D90C4D2846FFF7E5
:10236000ABFE0B4C2046FFF7A7FE0A48FFF7A4FE82
:102370000948FFF7A1FE0948FFF79EFE084B1D60C4
:10238000084B1C6038BD00BFFC050020E80500209C
:10239000D4050020B8050020A40500208C050020ED
:1023A000D0050020CC05002010B5044600F0AAFCA2
:1023B000214A136801331360204B1B685BB1204B2B
:1023C0001B686BB91D4B1B68DA6AE36A9A4207D82F
:1023D0001A4B1C6004E0194B1C601368012B28D0B9
:1023E000184A136801331360E06A01238340164AD8
:1023F00011680B43136000EB8000211D134B03EBAE
:102400008000FFF767FE00F09FFC0D4B1B687BB15F
:102410000A4B1B68DA6AE36A9A4209D24FF0E0235A
:102420004FF08052C3F8042DBFF34F8FBFF36F8F6F
:1024300010BDFFF785FFD3E7880500208806002040
:102440007C0500206C05002080050020FC05002094
:1024500010B5044690F8513063B1012B11D0022B16
:102460000ED04FF0500383F31188BFF36F8FBFF38B
:102470004F8FFEE7006B00F041FE204600F03EFE6D
:1024800010BD00F03BFEFBE70F4B1B68D3B110B54E
:1024900000F038FC0D4BDB68DC68201DFFF73EFECA
:1024A0000B4A1368013B1360074A1368013B136032
:1024B00000F04AFC2046FFF7CBFF034B1B68002BC4
:1024C000E6D110BD704700BFA0050020A405002084
:1024D0008805002070B504460D461D4B1E681D4B37
:1024E00018680430FFF71AFE48B91A4B1B68DB6AFC
:1024F00001229A4018490B6823EA02030B60B4F1E9
:10250000FF3F0DD03444134B1B685C60A64210D9CA
:10251000124B18680F4B19680431FFF7E6FD70BDC8
:10252000002DEFD00B4B196804310D48FFF7D2FD99
:10253000F5E70C4B1868074B19680431FFF7D5FD18
:10254000094B1B68A342EAD9074B1C60E7E700BFB1
:10255000840500208806002080050020CC0500208E
:102560008C050020D00500206805002008B50BE090
:102570004FF0E0234FF08052C3F8042DBFF34F8F8C
:10258000BFF36F8FFFF7E7FBFFF77EFF024B1B6880
:10259000012BEDD8F6E700BFFC05002030B587B071
:1025A0000B9C7CB10C9DB5B154250495049D542D14
:1025B0001AD04FF0500383F31188BFF36F8FBFF32E
:1025C0004F8FFEE74FF0500383F31188BFF36F8FF7
:1025D000BFF34F8FFEE74FF0500383F31188BFF333
:1025E0006F8FBFF34F8FFEE7049D0C9D2C63022479
:1025F00085F8514000240394029505AC01940A9C8F
:102600000094FFF74FFE0C98FFF7CEFE059807B039
:1026100030BD2DE9F04385B00746884614461E4676
:10262000900000F0E9FC08B38146542000F0E4FC7F
:102630000546A8B1C0F83090002380F851300393CC
:1026400002900D9B01930C9B00933346224641461A
:102650003846FFF727FE2846FFF7A6FE012007E0D1
:10266000484600F04BFD4FF0FF3001E04FF0FF30E7
:1026700005B0BDE8F083000010B588B000240594D3
:10268000069407AA06A905A8FFF766FB059B029317
:10269000069B019300942346079A0E490E48FFF7C4
:1026A0007DFF0E4B186090B14FF0500383F31188FB
:1026B000BFF36F8FBFF34F8F094B4FF0FF321A609C
:1026C000084B01221A60084B1C6000F0A5FB08B003
:1026D00010BD00BF944500086D250008640500206A
:1026E000680500207C05002084050020024A13684C
:1026F00001331360704700BF60050020F8B53A4B06
:102700001B68002B69D1394B1D6801351D60C5B9A7
:10271000374B1B681B6843B14FF0500383F311889C
:10272000BFF36F8FBFF34F8FFEE7314A1168314B14
:10273000186810601960304A136801331360FFF79E
:102740009BFD2E4B1B68AB423DD900272C4B1B68D1
:10275000DB6A03EB83039A002A4B9B58012B00D9B9
:102760000127294B1B68002B3CD001273AE00127A9
:102770001F4B1B681B6843B31D4B1B68DB68DC6881
:1027800063689D4226D3261D3046FFF7C7FCA36A27
:102790001BB104F11800FFF7C1FCE36A01229A4063
:1027A0001A49086802430A6003EB83039A00314622
:1027B00014481044FFF78EFCE26A114B1B68DB6A79
:1027C0009A42D4D2D4E70027D2E70C4B4FF0FF3225
:1027D0001A60BBE7094A1360B8E70D4A1368013372
:1027E000136000273846F8BD6005002084050020EE
:1027F000D0050020CC0500207005002068050020D1
:1028000088060020FC0500207405002080050020BB
:102810007805002038B5354B1B6843B94FF050039D
:1028200083F31188BFF36F8FBFF34F8FFEE700F084
:1028300069FA2E4B1A68013A1A601B68002B4FD1B7
:102840002B4B1B680BB900244BE00024294B1B6861
:102850001BB3284BDB68DC6804F11800FFF75EFC53
:10286000251D2846FFF75AFCE06A01238340224ACF
:1028700011680B43136000EB800029461F4B03EBEC
:102880008000FFF727FCE26A1D4B1B68DB6A9A4257
:10289000DCD31C4B01221A60D8E70CB1FFF7ECFC2B
:1028A000194B1C6884B9174B1C68D4B14FF0E02356
:1028B0004FF08052C3F8042DBFF34F8FBFF36F8FDB
:1028C00001240EE0013C07D0FFF718FF0028F9D0E3
:1028D0000C4B01221A60F5E70B4B00221A60E2E76D
:1028E000002400F031FA204638BD00BF600500200A
:1028F00088050020B805002080050020FC05002088
:1029000088060020740500207805002010B5A8B1C5
:102910000446104B1B6843B14FF0500383F31188FA
:10292000BFF36F8FBFF34F8FFEE7FFF7DFFE00218E
:102930002046FFF7CFFDFFF76DFF48B94FF0E023CA
:102940004FF08052C3F8042DBFF34F8FBFF36F8F4A
:1029500010BD00BF60050020204B1B681BB1204B41
:1029600001221A6070471E4B00221A601D4B1B6823
:10297000B3FA83F3DBB2C3F11F0303EB83018A00D5
:1029800019498A5842B94FF0500383F31188BFF3B5
:102990006F8FBFF34F8FFEE7134803EB83018A006D
:1029A000024451684968516003EB830C4FEA8C0282
:1029B00008320244914209D003EB83039A000A4B88
:1029C00013445B68DA68094B1A60704748686246CE
:1029D0009100054A0A445060EEE700BF6005002000
:1029E0007405002080050020FC05002088060020DA
:1029F00038B5C368DC6824B304F118052846FFF72E
:102A00008DFB184B1B682BBB251D2846FFF786FB4B
:102A1000E06A01238340144A11680B43136000EB02
:102A200080002946114B03EB8000FFF753FBE26A5D
:102A30000F4B1B68DB6A9A4211D901200D4B1860BD
:102A400038BD4FF0500383F31188BFF36F8FBFF38E
:102A50004F8FFEE729460848FFF73CFBE7E70020D9
:102A6000EEE700BF6005002080050020FC05002087
:102A70008806002074050020B805002038B50546FA
:102A80000C4600F03FF91A4B1B68DB6C2BB9184B56
:102A90001B68012283F85020ACB900F055F900F012
:102AA00031F9134B1B68DC6C24B1DDB1104B1B6892
:102AB0000022DA640E4B1B68002283F8502000F0DD
:102AC00043F9204638BD11462046FFF703FD4FF07D
:102AD000E0234FF08052C3F8042DBFF34F8FBFF3B4
:102AE0006F8FDAE7024B1B68621EDA64E2E700BF11
:102AF00088060020F8B5E0B10D46044600F0ECF978
:102B0000EFF311834FF0500282F31188BFF36F8F00
:102B1000BFF34F8F1E4694F85030DBB2022284F888
:102B20005020E26C0132E264012B0BD086F3118855
:102B3000F8BD4FF0500383F31188BFF36F8FBFF3DD
:102B40004F8FFEE7A36A43B14FF0500383F3118820
:102B5000BFF36F8FBFF34F8FFEE7144B1B68FBB9BA
:102B6000271D3846FFF7DAFAE06A01238340104A4E
:102B700011680B43136000EB800039460D4B03EBEB
:102B80008000FFF7A7FAE26A0B4B1B68DB6A9A42E8
:102B9000CCD90DB101232B60084B01221A60C5E787
:102BA00004F118010648FFF795FAECE760050020EC
:102BB00080050020FC050020880600207405002008
:102BC000B8050020842801D00330704700207047EA
:102BD00008B5FFF751FD002008BD2DE9F04387B08F
:102BE0000E464469C4B18569B5B14768D0F8008024
:102BF000D0F81090B0F90800FFF7E4FF02950194B7
:102C0000009033464A4641463846FFF7C7FC0590D8
:102C1000059807B0BDE8F083446805680769B0F916
:102C20000800FFF7CFFF05AB019300903346BAB21F
:102C300029462046FFF7EDFC0128E9D00020E8E70F
:102C400008B500B90120FFF761FE002008BD0000B3
:102C500082B0002301930D4B1B68B3F1FF3F08D0F6
:102C60004FF0500383F31188BFF36F8FBFF34F8F83
:102C7000FEE74FF0500383F31188BFF36F8FBFF36C
:102C80004F8F019B002BFCD002B070470C0000203E
:102C900006480068006880F3088862B661B6BFF332
:102CA0004F8FBFF36F8F00DF00BF000008ED00E023
:102CB0004FF0807340F8043C21F0010140F8081CFB
:102CC000034B40F80C3C40F8202C4038704700BFC4
:102CD000512C00080000000000000000000000006F
:102CE000074B19680868B0E8F00F80F30988BFF354
:102CF0006F8F4FF0000080F311884EF00D0E70477B
:102D0000880600204FF0500383F31188BFF36F8FC4
:102D1000BFF34F8F0B4A136801331360012B00D0B0
:102D200070474FF0E023D3F8043D13F0FF0FF7D0C6
:102D30004FF0500383F31188BFF36F8FBFF34F8FB2
:102D4000FEE700BF0C000020094B1B6843B94FF0A1
:102D5000500383F31188BFF36F8FBFF34F8FFEE7EC
:102D6000013B034A13600BB983F31188704700BF1E
:102D70000C00002000000000000000000000000027
:102D8000EFF30980BFF36F8F0D4B1A6820E9F00F46
:102D900010602DE908404FF0500080F31188FFF7D4
:102DA000DBFD4FF0000080F31188BDE80840196892
:102DB0000868B0E8F00F80F30988BFF36F8F7047A1
:102DC0008806002008B54FF0500383F31188BFF345
:102DD0006F8FBFF34F8FFFF791FC28B14FF0E023C7
:102DE0004FF08052C3F8042D002383F3118808BDEF
:102DF0004FF0E022002313619361054B1B680549E6
:102E0000A1FB03139B09013B536107231361704727
:102E100008000020D34D621010B582B02A4B1A78FA
:102E2000D2B20192FF221A701B78DBB28DF8033008
:102E30009DF8033003F05003244A1370244B0722FB
:102E40001A6009E0224A1368013B13609DF80330C1
:102E50005B00DBB28DF803309DF8033013F0800F78
:102E6000F0D11B4B1B68032B08D04FF0500383F3AA
:102E70001188BFF36F8FBFF34F8FFEE71B02144A19
:102E8000136003F4E0631360019BDBB20E4A13701E
:102E90004FF0E023D3F8202D42F47002C3F8202D28
:102EA000D3F8202D42F07042C3F8202DFFF7A0FF89
:102EB0000024084B1C60FFF7EBFEFFF74DFDFFF70A
:102EC000C7FE204602B010BD00E400E090060020DE
:102ED0008C0600200C000020EFF305830F2B0FD988
:102EE000114A9B5CDBB2114A12789A4208D94FF022
:102EF000500383F31188BFF36F8FBFF34F8FFEE74B
:102F00004FF0E023D3F80C3D03F4E063084A126865
:102F1000934208D94FF0500383F31188BFF36F8FAA
:102F2000BFF34F8FFEE77047F0E300E0900600200C
:102F30008C060020124A12F0070F1ED0D11D21F07E
:102F40000701C1F5406313440A460E4802600021A0
:102F500041601344083B23F007030B4803605960AA
:102F60001960991A51601360084B1960084B196079
:102F7000084B4FF000421A6070474FF44063E4E79B
:102F8000B4060020AC060020A8060020A006002001
:102F9000A406002094060020154B1A461B688342A5
:102FA000FBD3516802EB010C844509D0416800EB6A
:102FB000010C634509D00360904218D0106070473F
:102FC0004068014451601046F0E710B4094C246891
:102FD000A3420AD05B681944416013681B68036010
:102FE000904200D0106010BC70470460F8E7704752
:102FF000AC060020A806002038B50446FFF776FB93
:10300000384B1B68B3B1384B1B681C4250D1002CA5
:1030100050D004F1080214F0070F02D022F007028A
:103020000832002A55D0314B1B68934253D33049A4
:103030000C6804E0FFF77EFFE5E721461C46636865
:10304000934202D22368002BF7D1264B1B68A34280
:1030500043D00D68083523680B6063689B1A102BFA
:1030600010D9A01810F0070F08D04FF0500383F3C9
:103070001188BFF36F8FBFF34F8FFEE7436062602D
:10308000FFF78AFF626819490B689B1A0B601949A0
:1030900009688B4201D217490B60134B1B6813431D
:1030A000636000232360144A13680133136002E055
:1030B000002500E00025FFF7ADFB15F0070F0ED04F
:1030C0004FF0500383F31188BFF36F8FBFF34F8F1F
:1030D000FEE70025EFE70025EDE70025EBE72846B2
:1030E00038BD00BFA806002094060020A4060020DA
:1030F000AC060020A00600209C060020002834D04A
:1031000038B50446A0F1080550F8043C174A126887
:10311000134208D14FF0500383F31188BFF36F8F30
:10312000BFF34F8FFEE750F8081C41B14FF050033A
:1031300083F31188BFF36F8FBFF34F8FFEE723EA4E
:10314000020340F8043CFFF7D1FA54F8041C084A83
:1031500013680B4413602846FFF71EFF054A1368E7
:1031600001331360FFF756FB38BD7047940600200B
:10317000A40600209806002010B50446FDF7B4FD13
:103180002046FDF7FBFD10BD10B584B0134C029432
:1031900004F1540301930323009300234FF480624E
:1031A0000F491048FFF7FAF944F8040C0023009384
:1031B0000D4B03F1480202210A20FFF712F804F632
:1031C000FC74A065094C2046FFF7D6FF042208498D
:1031D0002046FDF741FC04B010BD00BFC81200201E
:1031E0009C45000835320008202300209002002072
:1031F000B412002010B40246C36A90F8280052F8B6
:1032000020401B1BD3620B44D36242F820100130D4
:10321000C0B282F82800092802D9002182F82810BB
:103220000349A1FB0313C3F3CF00108610BC704702
:10323000CDCCCCCC38B54FF0FF310120FFF71EFCD0
:103240000024184B93F88031A342F4D9154D04EBB8
:1032500044035A012A4492F82830134951F82410A3
:1032600004EB440C4FEACC00184445F8201001331D
:103270000E4880FB030C0CF0FC0000EBAC004FEAA6
:10328000400CA3EB0C0382F8283004EB44035801F4
:103290002830284489B20430FFF7ACFF0134E4B28F
:1032A000CFE700BF10000020B412002067666666FA
:1032B0000C4B1868A8B100B583B00023019301A995
:1032C000FFF718FC019B4BB14FF0E0234FF0805209
:1032D000C3F8042DBFF34F8FBFF36F8F03B05DF8BA
:1032E00004FB7047C412002010B50446FDF716FD1C
:1032F000042202492046FDF7AFFB10BDB4120020A6
:1033000003685A6912F0800F01D000221A617047D9
:1033100090F83E30DBB2402B10D00369B3F5804FFC
:103320001BD0036D002B39D1436CC3F3C813026863
:1033300003F0060343F0F00313617047036D2BB9EC
:10334000436C026803F0FE0313617047436C02682C
:1033500043F00103DBB21361704790F83D30DBB2FC
:10336000212B0FD0436C026843F00103DBB21361E1
:10337000436B6BB19B6A5BB10268536843F40063B3
:1033800053607047436C026803F0FE031361EFE77C
:10339000836B33B19B6A002BEED102E0036D012BEE
:1033A00000D07047436CC3F3C813026803F00603F0
:1033B00043F0F1031361F4E7436C0268DBB213617D
:1033C000436B3BB19B6A2BB10268536843F40063C3
:1033D00053607047836B002BFBD09B6A002BF3D1AB
:1033E000F7E7000010B48DB090F83E30DAB2C16A51
:1033F000046B90F83D30DBB2222B0AD000230B93F4
:1034000003685A690B929B690B930B9B0DB010BC20
:103410007047036D0BB9402A17D0036D1BB90369C0
:10342000B3F5404F19D0438D9BB2002B25D10393A8
:1034300003685A6903929A690392039A1A6842F4DC
:1034400000721A6000230365E0E7019303685A697C
:1034500001929B690193019BD8E7002302930368C3
:103460005A6902929A690292029A1A6842F4807228
:103470001A60036D01330365C8E7438D9BB2012BCE
:1034800026D0438D9BB2022B7CD00268136843F494
:103490008063136003685A6812F4006F0FD020290C
:1034A00000F2B9800829C0F0B28008395C4ACA40ED
:1034B00012F0010F03D05A6842F480525A60002380
:1034C0000A9303685A690A929B690A930A9BB9E7AF
:1034D00011F5803F11D0082934D0202932D0122C88
:1034E0002ED0042940D002293ED010293CD00268B9
:1034F000136823F4806313603BE00268136823F4CD
:103500008063136003685A6812F4006F0CD01A6865
:1035100022F480621A600023049303685A690492BB
:103520009B690493049B8DE7002205925A690592DA
:103530009A690592059A1A6842F400721A6081E746
:103540000129D0D00268136823F48063136000233C
:10355000079303685A6907929A690792079A1A684B
:1035600042F400721A606DE70268136843F48063E6
:1035700013600023069303685A6906929B690693B9
:10358000069B5FE7102912D8264BCB4013F0010FA2
:103590000DD00268136843F480631360002309931D
:1035A00003685A6909929B690993099B10E00268B4
:1035B000136843F4006313600023089303685A6997
:1035C00008929A690892089A1A6822F480621A602E
:1035D00003685A6812F4006F3FF434AF202911D801
:1035E00008290BD308390E4ACA4012F0010F3FF4E4
:1035F00029AF5A6842F480525A6023E701297FF4C8
:1036000021AFF6E711F5803F7FF41CAFF1E7012908
:103610007FF455AF4FE711F5803F7FF450AF4AE795
:103620000101000114000100438D9BB25BB1426AAD
:10363000036812781A61436A01334362438D9BB277
:10364000013B9BB243857047438D9BB25BB10368DE
:103650001A69436A1A70436A01334362438D9BB20D
:10366000013B9BB24385704782B0002301930E4B10
:103670001B68DB080D4AA2FB03231B0A03EB830331
:103680000193019B013B0193019B33B103681B68CC
:1036900013F4007FF5D1002004E0036C43F0200315
:1036A0000364012002B070470800002089B5F814B7
:1036B000C36AB3F52A0F04D0C36AB3F12A4F03D00B
:1036C00070470123C36270470823C362F8E7000014
:1036D000002800F0CC8070B5044690F83D30002BF7
:1036E00077D0242384F83D302268136823F0010347
:1036F00013602268136843F4004313602268136860
:1037000023F400431360FDF7E3FE62685A4B9A42CC
:1037100064D85A4B98428CBF00230123002B40F001
:10372000A8805749A1FB00318B0C25686A6822F0FC
:103730003F0242EA91426A6021680A6A22F03F022F
:1037400066684D4DAE424FD8013313430B6221687A
:10375000CA6922F44F4222F0FF026568464B9D423F
:103760004CD8431E6D00B3FBF5F3013340F6FC70FB
:10377000034278D0C3F30B031A43CA6121680B6874
:1037800023F0C003E269206A024313430B602168FF
:103790008B6823F4034323F0FF032269E0680243AC
:1037A00013438B602168CB6823F0FF036269A06933
:1037B00002431343CB602268136843F00103136094
:1037C00000202064202384F83D30206384F83E00EC
:1037D00070BD80F83C30FCF73BFF82E7294B9842F4
:1037E0008CBF0023012399E74FF4967505FB03F383
:1037F000254DA5FB03539B090133A6E7A668BEB977
:10380000431E05EB450CB3FBFCF30133C3F30B0381
:10381000B3FA83F35B0943BBC6B9431E05EB450509
:10382000B3FBF5F30133C3F30B0343F40043A3E706
:10383000431E05EB850C0CEB8C0CB3FBFCF3013346
:10384000C3F30B03B3FA83F35B09E4E7431E05EB11
:10385000850505EB8505B3FBF5F30133C3F30B03D6
:1038600043F4404388E7042386E7012384E70120EB
:1038700070470120ACE700BFA08601007F841E00D6
:1038800083DE1B43FF083D00D34D62107047704735
:10389000704708B590F83D30DAB2438D9BB283B1E2
:1038A000416A036809781961436A01334362438DB1
:1038B0009BB2013B9BB24385438D9BB20BB9292A36
:1038C00000D008BD0268536823F48063536021234D
:1038D0000363282380F83D30FFF7DAFFF1E77047F4
:1038E00008B590F83D30DAB2438D9BB283B10368DE
:1038F0001969436A1970436A01334362438D9BB26D
:10390000013B9BB24385438D9BB20BB92A2A00D061
:1039100008BD0268536823F4806353602223036365
:10392000282380F83D30FFF7DAFFF1E7704700B554
:1039300083B090F83D3003F02803282B0CD00023EF
:10394000019302685169019192690192019A80F88C
:103950003C3003B05DF804FB0268536823F48063D5
:10396000536011F0040F0BD0002311F0800F09D128
:103970008289002180F83C101946FFF7D7FFE8E75D
:103980000123F2E7028BF4E77047000010B504460C
:1039900090F83D30DBB2C26A082A01D0202A01D15A
:1039A000282B06D0212B1FD023686FF480625A6128
:1039B00010BD1D4BE3622268536823F4E06353603B
:1039C00023686FF480625A612268136823F480636D
:1039D000136000232363202284F83D2084F83E30C6
:1039E0002046FFF7D1FFE3E70F4BE3622123236378
:1039F000202384F83D30002384F83E302268536849
:103A000023F4E063536023686FF480625A61226894
:103A1000136823F4806313602046FFF771FC20468F
:103A2000FFF736FFC4E700BF0000FFFF704708B58F
:103A3000C26A90F83D30DBB2212B00D008BD438D27
:103A40009BB263B1426A036812781A61436A013318
:103A50004362438D9BB2013B9BB24385EEE7082A4C
:103A600004D0202A02D012F5803F19D10268536891
:103A700023F4E06353600268136843F40073136037
:103A800000230363202380F83D3090F83E30DBB202
:103A9000402B15D0002380F83E30FFF7F7FECDE72E
:103AA0000268536823F4E063536011230363002327
:103AB00080F83E30202380F83D30FFF7E7FEBDE779
:103AC000002380F83E30FFF7B1FFB7E708B590F864
:103AD0003D30026D9AB9C36C012B08D0836C02682B
:103AE000C3F307231361036D0133036508BD836CC2
:103AF0000268DBB21361036D02330365F6E7DBB2E4
:103B0000026D012A23D0026D022A3ED1222B26D03B
:103B1000428D92B20AB1212B2AD0428D92B2002A54
:103B2000E4D1212BE2D10268536823F4E0635360AF
:103B30000268136843F400731360002303632022B8
:103B400080F83D2080F83E30FFF770FFCEE7836CB1
:103B50000268DBB21361036D01330365C6E70268D7
:103B6000136843F480731360036D01330365BDE78D
:103B7000426A036812781A61436A01334362438DD3
:103B80009BB2013B9BB24385B0E7FFF7B9FBADE7C2
:103B900010B590F83D30DBB290F83E20D2B2C46A46
:103BA000018D00293BD1212B02D0402A42D010BDEB
:103BB000082C04D0202C02D014F5803F19D10268C3
:103BC000536823F4E06353600268136843F400739E
:103BD000136000230363202380F83D3090F83E30CB
:103BE000DBB2402B15D0002380F83E30FFF74EFEAD
:103BF000DDE70268536823F4E06353601123036335
:103C0000002380F83E30202380F83D30FFF73EFE51
:103C1000CDE7002380F83E30FFF708FFC7E7212BF0
:103C2000C3D1438D9BB243B90268536823F48063C8
:103C30005360BCE7222BBAD1F3E790F83E30DBB2F9
:103C4000402B0CD0426A036812781A61436A013330
:103C50004362438D9BB2013B9BB24385A7E7FFF7CD
:103C600035FFA4E7704708B5C26A438D9BB2042BA9
:103C700014D0438D9BB2032B22D0438D9BB2022BD9
:103C800039D003681A69436A1A70436A0133436280
:103C9000438D9BB2013B9BB2438510E002685368A1
:103CA00023F48063536003681A69436A1A70436A95
:103CB00001334362438D9BB2013B9BB2438508BDF8
:103CC00001684B6823F480634B60042A06D0022A03
:103CD00004D00268136823F48063136003681A69D0
:103CE000436A1A70436A01334362438D9BB2013BBE
:103CF0009BB24385E3E7531E0F2B42D8DFE803F066
:103D0000083B413B41414141414141414141410821
:103D100001680B6823F480630B6003681969436AC8
:103D20001970416A4B1C4362438D9BB2013B9BB2AD
:103D3000438503681B694B70436A01334362438DBB
:103D40009BB2013B9BB2438501684B6823F44073EF
:103D50004B60202380F83D3090F83E30DBB2402BA2
:103D600015D0002380F83E30082A17D0202A15D01D
:103D70001223036314E001680B6843F480630B6053
:103D8000CBE701680B6843F400730B60C5E70023C1
:103D900080F83E300363FFF765FF90E7002303637D
:103DA000FFF775FD8BE7704738B590F83D30DBB213
:103DB000222B00D038BD0446C56A438D9BB2032B2D
:103DC00015D903681A69436A1A70436A013343625A
:103DD000438D9BB2013B9BB24385438D9BB2032B2A
:103DE000E8D10268536823F480635360E2E7C26A53
:103DF000022A01D0012B05D92268536823F480637D
:103E00005360D7E7FFF730FC002835D122681368EC
:103E100023F4806313602268536823F4E0635360E3
:103E200023681A69636A1A70636A01336362638D77
:103E30009BB2013B9BB26385202384F83D3094F80C
:103E40003E30DBB2402B09D0002384F83E30082DF1
:103E50000CD0202D0AD01223236309E0002384F81C
:103E60003E3023632046FFF7FDFEA3E700232363D4
:103E70002046FFF70CFD9DE72268536823F4E063BA
:103E8000536023681A69636A1A70636A0133636254
:103E9000638D9BB2013B9BB26385202384F83D3048
:103EA000002384F83E302046FFF77DFF82E770470D
:103EB00000B583B000230193406A90F83D20D2B250
:103EC000324B1B68DB083249A1FB03131B0A03EBCF
:103ED0008303C3EBC3030193019B43B1019B013BEC
:103EE000019303681B6813F4007FF5D103E0036CB2
:103EF00043F020030364436B0BB100219962836B91
:103F00000BB10021996201680B6823F480630B6098
:103F100000234385436B0BB100215963836B0BB1C5
:103F20000021596301680B6823F001030B6090F8CE
:103F30003D30DBB2602B0ED002F02802282A14D0CC
:103F4000202380F83D30002380F83E30FFF72BFF20
:103F500003B05DF804FB202380F83D30002380F897
:103F60003E300364FFF7A3FFF2E70268136843F0F3
:103F7000010313600268136843F480631360002335
:103F80000363282380F83D30E0E700BF08000020ED
:103F900089B5F81410B5044690F83D30DBB290F8BE
:103FA0003E20D2B2102A36D0402A34D003F0280264
:103FB000282A38D02268526812F4006F07D1602B8B
:103FC00005D0202384F83D30002384F83E300023C0
:103FD000236323685A6812F4006F48D05A6822F4A9
:103FE00000625A60626B92F82130DBB2012B20D064
:103FF000444B5363606BFDF757FD002849D022689E
:10400000136823F001031360202384F83D30606BB4
:10401000436B98473DE0222BC8D121680A6822F4FF
:1040200000620A60C2E700232363282384F83D303E
:10403000CFE7A36B334A5A63A06BFDF735FD40B35E
:1040400023685A6912F0400F05D01A69636A1A7022
:10405000636A013363622268136823F0010313600B
:10406000202384F83D30A06B436B984711E094F80F
:104070003D20D2B2602A1FD05A6912F0400F05D0FD
:104080001A69636A1A70636A013363622046FFF734
:104090008AFE236C13F00F0F04D02268536823F4B8
:1040A000E063536094F83D30DBB2226C12F0040FF1
:1040B00001D0282B18D010BD202284F83D200022EA
:1040C00022645A6912F0400F05D01A69636A1A70A7
:1040D000636A013363622268136823F0010313608B
:1040E0002046FFF7E4FED4E7074BE3620023236397
:1040F000202284F83D2084F83E302046FFF744FC1F
:10410000D9E700BFB13E00080000FFFF30B583B023
:10411000044690F83D50EDB20268536823F4E06322
:1041200053600023019303685A6901921A6842F0B0
:1041300001021A60019B0268136823F48063136014
:1041400003685A6812F4006F38D0222D21D02A2D2E
:104150001FD0426B1268526892B24285428D92B271
:104160001AB1026C42F0040202645A6822F400623E
:104170005A60606BFDF786FD01281FD0636B444ACF
:104180005A63606BFDF790FCC0B1606B436B98475E
:1041900014E0A26B1268526892B26285628D92B28C
:1041A0001AB1226C42F0040222645A6822F40062BE
:1041B0005A60A06BFDF766FD012842D1638D9BB26A
:1041C00033B323685A6912F0040F0AD01A69636A7C
:1041D0001A70636A01336362638D9BB2013B9BB2C9
:1041E000638523685A6912F0400F0AD01A69636A1E
:1041F0001A70636A01336362638D9BB2013B9BB2A9
:104200006385638D9BB21BB1236C43F0040323646D
:10421000236C13BB2A2D25D094F83D30DBB2282B1C
:1042200029D0236B222B01D0222D19D10023236307
:10423000202284F83D2084F83E302046FFF74FFBD3
:104240000EE0A36B124A5A63A06BFDF72DFC002809
:10425000B4D0A06B436B9847B0E72046FFF79AFEB7
:1042600003B030BD00232363282384F83D3020466B
:10427000FFF735FBD0E7074BE362002323632022DF
:1042800084F83D2084F83E302046FFF77DFBE7E7C9
:10429000B13E00080000FFFFF8B50446026855680B
:1042A000C66A90F83E30DBB290F83D10C8B2102BD1
:1042B00013D0402B11D0236C002B7AD053690021EE
:1042C00013F0020F78D015F4007F75D0236C03B182
:1042D00091692046FFF72BFBF8BDD2F818C0516951
:1042E00011F0010705D1B6F52A0FF5D0B6F12A4F26
:1042F000F2D017B115F4007F29D111F0080F02D0C8
:1043000015F4007F2AD111F0020F02D015F4007FBE
:1043100028D11CF0040F31D0526812F4006FDBD1A9
:1043200011F0800F05D015F4806F02D011F0040F4A
:104330001CD011F0040FCFD015F4007FCCD0212871
:1043400018D0402BC8D12046FFF7C0FBC4E7204659
:10435000FFF7AEF92046FEF7DBFFBDE72046FFF78B
:104360002BF8B9E72046FFF73DF8B5E72046FFF701
:104370000FFCB1E72046FFF75AFBADE7536813F493
:10438000006FA9D111F0400F05D015F4806F02D055
:1043900011F0040F09D011F0040F9DD015F4007F27
:1043A0009AD02046FFF75FFC96E72046FFF7FCFC1B
:1043B00092E79169536983E713F0100F02D015F467
:1043C000007F18D121281AD0292818D013F0400FC7
:1043D00005D015F4806F02D013F0040F28D013F02D
:1043E000040F3FF479AF15F4007F3FF475AF20461A
:1043F000FFF72AF970E72046FFF788FE6CE713F015
:10440000800F05D015F4806F02D013F0040F0BD08D
:1044100013F0040F3FF460AF15F4007F3FF45CAF7E
:104420002046FFF701F957E72046FFF732FA53E736
:104430002046FFF755FA4FE7F8B5044603685D6973
:104440005F6890F83E20D2B2C5F3002615F4807F55
:104450000DD0C7F3002617F4807F08D06FF4807169
:10446000596101680B6843F400430B60012615F4A1
:10447000007F08D017F4807F05D046F0020623683D
:104480006FF40071596115F4806F19D017F4807FB3
:1044900016D0638D99B294F83D30DBB2206B202AA0
:1044A0001BD023686FF48061596146F00406102A1E
:1044B00001D0402A04D12268136843F400731360CA
:1044C00015F4006F17D017F4807F14D046F008065B
:1044D00023686FF400625A610EE00029E1D1212BBC
:1044E00005D0292B03D0282BDBD12128D9D1204678
:1044F000FFF74CFAE4E72EB1236C334323642046E4
:10450000FFF748FDF8BD0000FDF724FC0B480C49FF
:104510000C4A002302E0D458C4500433C4188C421F
:10452000F9D3094A094C002301E013600432A24286
:10453000FBD3FBF731FEFBF7A9FF7047000000201B
:1045400094010020F0450008940100207C23002005
:10455000FEE70000F8B500BFF8BC08BC9E467047F7
:0C456000F8B500BFF8BC08BC9E467047D0
:10456C00884500081103000800000000000000004E
:10457C00800000000000000000000000646566611F
:10458C00756C745461736B0049444C450000000019
:10459C0048554D494449545900000000010200009F
:1045AC0002030405060708090A0B0C0D0E0F101068
:1045BC000102000002030405060708090A0B0C0D92
:1045CC000E0F101000000000010203040000000098
:0C45DC00000000000102030406070809AB
:0445E800790100084D
:0445EC005101000871
:1045F000010000001000000000127A00AAAAAAAA76
:1046000000000000000000000000000000000000AA
:10461000000000000000000000000000000000009A
:10462000000000000000000000000000000000008A
:10463000000000000000000000000000000000007A
:10464000000000000000000000000000000000006A
:10465000000000000000000000000000000000005A
:10466000000000000000000000000000000000004A
:10467000000000000000000000000000000000003A
:10468000000000000000000000000000000000002A
:10469000000000000000000000000000000000001A
:1046A000000000000000000000000000000000000A
:1046B00000000000000000000000000000000000FA
:1046C00000000000000000000000000000000000EA
:1046D00000000000000000000000000000000000DA
:1046E00000000000000000000000000000000000CA
:1046F00000000000000000000000000000000000BA
:1047000000000000000000000000000000000000A9
:104710000000000000000000000000000000000099
:104720000000000000000000000000000000000089
:104730000000000000000000000000000000000079
:104740000000000000000000000000000000000069
:104750000000000000000000000000000000000059
:104760000000000000000000000000000000000049
:104770000000000000000000000000000000000039
:044780000400000031
:0400000508004509A1
:00000001FF
